:10000000B0EF04F0EA6A520EE96EEF500EE0010E16
:10001000016E006A002EFED7012EFBD74A0E006E3D
:10002000002EFED700D0EF2EF2D71200EA0E966E09
:1000300084B208D00A0E526EE5DFEA0E966E84B2E4
:1000400001D0051EF80E926E80B60AD00A0E526ECE
:10005000D9DFF80E926E80B603D0066A49C04AF026
:10006000C9EF04F0F80E926E8990926E8992926EAA
:1000700089949380086A81B0082A9382096A81B2C0
:10008000092A93840A6A81B40A2A93860B6A81B684
:100090000B2A93880C6A81B80C2A938A0D6A81BA5C
:1000A0000D2A938C0E6A81BC0E2A938E0F6A81BE34
:1000B0000F2AF80E926E8980926E8992926E8994C0
:1000C0009380106A81B0102A075208E19382116A66
:1000D00081B2112A9384126A81B4122A9386136A18
:1000E00081B6132A9388146A81B8142A938A156AF0
:1000F00081BA152A938C166A81BC162A938E176AC8
:1001000081BE172AF80E926E8990926E8982926E45
:1001100089949380186A81B0182A075208E1938263
:10012000196A81B2192A93841A6A81B41A2A9386A9
:100130001B6A81B61B2A93881C6A81B81C2A938A81
:100140001D6A81BA1D2A938C1E6A81BC1E2A938E59
:100150001F6A81BE1F2AF80E926E8980926E898274
:10016000926E89949380206A81B0202A075208E118
:100170009382216A81B2212A9384226A81B4222A3D
:100180009386236A81B6232A9388246A81B8242A15
:10019000938A256A81BA252A938C266A81BC262AED
:1001A000938E276A81BE272AF80E926E8990926EEE
:1001B0008992926E89849380286A81B0282A075296
:1001C00008E19382296A81B2292A93842A6A81B438
:1001D0002A2A93862B6A81B62B2A93882C6A81B8A7
:1001E0002C2A938A2D6A81BA2D2A938C2E6A81BC7F
:1001F0002E2A938E2F6A81BE2F2AF80E926E898046
:10020000926E8992926E89849380306A81B0302A8E
:10021000075208E19382316A81B2312A9384326AAB
:1002200081B4322A9386336A81B6332A9388346A3A
:1002300081B8342A938A356A81BA352A938C366A12
:1002400081BC362A938E376A81BE372AF80E926EA9
:100250008990926E8982926E89849380386A81B087
:10026000382A075208E19382396A81B2392A938485
:100270003A6A81B43A2A93863B6A81B63B2A9388CC
:100280003C6A81B83C2A938A3D6A81BA3D2A938CA4
:100290003E6A81BC3E2A938E3F6A81BE3F2AF80E99
:1002A000926E8980926E8982926E89849380406A70
:1002B00081B0402A075208E19382416A81B2412A03
:1002C0009384426A81B4422A9386436A81B6432A60
:1002D0009388446A81B8442A938A456A81BA452A38
:1002E000938C466A81BC462A938E476A81BE472A10
:1002F000CBEF04F04C6A4B6A04504B5C0CE2036A8F
:100300004B50080FE96E000E0320EA6EEF2C01D06F
:100310004C2A4B2AF1D74CC049F0052C02D04CC0D6
:100320004AF04CC001F0CCEF04F05050016A4F5C31
:1003300003E24FC000F00CD0006A080E516E4F3639
:1003400000365050005CD8B0006E0136512EF7D701
:1003500012004CC04FF00A0E506EE7DF00C04DF0A7
:100360004CC04FF00A0E506EE0DF01C04EF04D5011
:10037000F60F66E20A0F8BEF02F0000E956E8C907E
:10038000956E8C92956E8C94956E8C9659D0000ECD
:10039000956E8C80956E8C92956E8C94956E8C96E5
:1003A0004FD0000E956E8C90956E8C82956E8C94CD
:1003B000956E8C9645D0000E956E8C80956E8C82D5
:1003C000956E8C94956E8C963BD0000E956E8C90AD
:1003D000956E8C92956E8C84956E8C9631D0000EB5
:1003E000956E8C80956E8C92956E8C84956E8C96A5
:1003F00027D0000E956E8C90956E8C82956E8C84B5
:10040000956E8C961DD0000E956E8C80956E8C82AC
:10041000956E8C84956E8C9613D0000E956E8C9094
:10042000956E8C92956E8C94956E8C8609D0000E8C
:10043000956E8C80956E8C92956E8C94956E8C8654
:100440004E50F60F66E20A0FA2EF02F0000E956E14
:100450008C98956E8C9A956E8C9C956E8C9E59D0CE
:10046000000E956E8C88956E8C9A956E8C9C956E10
:100470008C9E4FD0000E956E8C98956E8C8A956EE2
:100480008C9C956E8C9E45D0000E956E8C88956EDA
:100490008C8A956E8C9C956E8C9E3BD0000E956ED2
:1004A0008C98956E8C9A956E8C8C956E8C9E31D0B6
:1004B000000E956E8C88956E8C9A956E8C8C956ED0
:1004C0008C9E27D0000E956E8C98956E8C8A956EBA
:1004D0008C8C956E8C9E1DD0000E956E8C88956EC2
:1004E0008C8A956E8C8C956E8C9E13D0000E956EBA
:1004F0008C98956E8C9A956E8C9C956E8C8E09D08E
:10050000000E956E8C88956E8C9A956E8C9C956E6F
:100510008C8ED1EF04F0E824F76AF736310FF66ECF
:10052000050EF7220A00F550FA6E0800F550F96E34
:100530007A038E03A203B603CA03DE03F2030604A2
:100540001A042E04E824F76AF7365F0FF66E050EDC
:10055000F7220A00F550FA6E0800F550F96E4C04C7
:100560006004740488049C04B004C404D804EC043B
:100570000005052C04D0EA0E966E8D8403D0EA0E99
:10058000966E8D94D2EF04F0016A026A006A036AE3
:10059000585002E1575018E0100E596ED890553659
:1005A0005636003603365850035C02E15750005C63
:1005B00007E35750005ED8A003065850035ED8806A
:1005C00001360236592EEAD71200150E535E0EE39D
:1005D000EA6A530EE96EFC0EEF16D890EF32EF3256
:1005E000EF5004E001D00000EF2EFDD71200270EDF
:1005F000566E100E556E586A4BC057F0C5DF02C0DC
:100600004FF001C04EF04C50640DF3CF52F0D89033
:100610004E34026E4F34036E02C053F0546E566A6D
:1006200052C055F0586E02C057F0AEDF02C051F014
:1006300001C050F04D6A515203E150504D5C20E230
:10064000EA0E966E8D904FC052F0522A5206D8B4E0
:1006500003D05368BADFFAD74EC053F0B6DFEA0EC4
:10066000966E8D804FC052F0522A5206D8B403D0F5
:100670005368ABDFFAD74EC053F0A7DF4D2ADBD764
:10068000140E526EBFDC1200B80E4B6EF40E4C6EA0
:10069000AEDFB80E4B6EF40E4C6EA9DFB80E4B6E8B
:1006A000F40E4C6EA4DF5D0E4B6E5E0E4C6E9FDF43
:1006B0000B0E4B6E960E4C6E9ADFB80E4B6EF40E10
:1006C0004C6E95DF5D0E4B6E5E0E4C6E90DF0B0E2A
:1006D0004B6E960E4C6E8BDFB80E4B6E8A0E4C6EC8
:1006E00086DF960E526E8EDC930E4B6EF40E4C6EC1
:1006F0007EDF930E4B6EF40E4C6E79DF930E4B6ED5
:10070000F40E4C6E74DFBA0E4B6E5E0E4C6E6FDFE5
:100710000B0E4B6E960E4C6E6ADF9F0E4B6EF40EF8
:100720004C6E65DF5D0E4B6E5E0E4C6E60DF0B0E29
:100730004B6E960E4C6E5BDFB80E4B6E8A0E4C6E97
:1007400056DF960E526E5EDC700E4B6EF40E4C6EE3
:100750004EDFB80E4B6E2C0E4C6E49DFB80E4B6E52
:10076000960E4C6E44DF700E4B6E900E4C6E3FDF5B
:100770003E0E4B6EC80E4C6E3ADF100E4B6EC80E1E
:100780004C6E35DFE40E4B6E7D0E4C6E30DFBA0ED4
:100790004B6E7D0E4C6E2BDFE40E4B6EFA0E4C6EE4
:1007A00026DFFA0E526E2EDCC70E4B6EFA0E4C6E22
:1007B0001EDF6E0E4B6E900E4C6E19DF4B0E4B6EA5
:1007C000C80E4C6E14DF2A0E4B6EC80E4C6E0FDF37
:1007D0000B0E4B6E7D0E4C6E0ADFD20E4B6E7D0EF5
:1007E0004C6E05DF0B0E4B6EFA0E4C6E00DFFA0EF0
:1007F000526E08DC5D0E4B6E7D0E4C6EF8DE9F0E69
:100800004B6EF40E4C6EF3DE5D0E4B6E770E4C6E3F
:10081000EEDEB80E4B6E7D0E4C6EE9DE0B0E4B6EAF
:10082000F40E4C6EE4DEB80E4B6E770E4C6EDFDECF
:100830000B0E4B6E7D0E4C6EDADE930E4B6E8A0EF7
:100840004C6ED5DE700E4B6EF40E4C6ED0DEB80ED4
:100850004B6E2C0E4C6ECBDEB80E4B6E960E4C6E65
:10086000C6DE700E4B6E900E4C6EC1DE3E0E4B6EB1
:10087000C80E4C6EBCDE100E4B6EC80E4C6EB7DE52
:10088000E40E4B6E7D0E4C6EB2DEBA0E4B6E7D0EDC
:100890004C6EADDEE40E4B6EFA0E4C6EA8DEFA0E18
:1008A000526E02EC00F0C70E4B6EFA0E4C6E9FDEDD
:1008B0006E0E4B6E900E4C6E9ADE4B0E4B6EC80E4B
:1008C0004C6E95DE2A0E4B6EC80E4C6E90DE0B0EF3
:1008D0004B6E7D0E4C6E8BDED20E4B6E7D0E4C6ED3
:1008E00086DE0B0E4B6EFA0E4C6E81DEFA0E526EE9
:1008F00002EC00F05D0E4B6EFA0E4C6E78DE9F0E31
:100900004B6EF40E4C6E73DE5D0E4B6E770E4C6EBE
:100910006EDE0B0E4B6E7D0E4C6E69DEB80E4B6EAE
:10092000F40E4C6E64DE5D0E4B6E770E4C6E5FDE29
:100930000B0E4B6E7D0E4C6E5ADEB80E4B6E8A0E51
:100940004C6E55DEACEF04F04A50495C02E0010EFB
:10095000066E065201E098D6065200E1D3EF04F08D
:10096000F86AD09E600ED36ED350400E046E010E16
:10097000056E066A010E076E496A4A6AC150C00BCD
:100980000F09C16E070EB46EF80E926E898016EFD5
:1009900000F032EF00F0AED401C04BF001C04CF0DB
:0A09A000D8D4E7D5D1D7F3D7030070
:020000040030CA
:0E0000003FC8380E0087A1000FC00FE00F4070
:00000001FF
;PIC18F4550
;CRC=F065  CREATED="11-dez-14 13:37"
