:020000040000FA
:06000000ECEF0EF012000F
:0A0006000100281E0000A100000008
:040010002A000000C2
:0C001400D9CFE6FFE1CFD9FF020EE126B4
:10002000DE6ADD6AFB0EDBCF14F0FC0EDBCF15F0D1
:10003000FD0EDBCF16F0FE0EDBCF17F00C6A0D6A5B
:100040007A0E0E6E440E0F6E14C007F015C008F045
:1000500016C009F017C00AF0ACEC0BF0FB0E07C09D
:10006000DBFFFC0E08C0DBFFFD0E09C0DBFFFE0E50
:100070000AC0DBFFFB0EDBCF14F0FC0EDBCF15F06C
:10008000FD0EDBCF16F0FE0EDBCF17F00A0E0C6E66
:10009000D70E0D6E230E0E6E3C0E0F6E14C007F0C1
:1000A00015C008F016C009F017C00AF015EC0DF0E5
:1000B000010A51E0FB0EDBCF18F0FC0EDBCF19F08C
:1000C000FD0EDBCF1AF0FE0EDBCF1BF0C9C008F02F
:1000D000CAC009F046EC0BF007C01CF008C01DF0C8
:1000E00009C01EF00AC01FF01CC00CF01DC00DF0AE
:1000F0001EC00EF01FC00FF018C007F019C008F0A6
:100100001AC009F01BC00AF0ACEC0BF007C014F0E9
:1001100008C015F009C016F00AC017F00C6A400EAE
:100120000D6E1C0E0E6E470E0F6E14C007F015C03C
:1001300008F016C009F017C00AF059EC0BF0D6EC25
:100140000CF008C0DEFF09C0DDFFDFCFE6FF9FEC4B
:100150000EF0E5528FD1FB0EDBCF14F0FC0EDBCF9F
:1001600015F0FD0EDBCF16F0FE0EDBCF17F00A0EFA
:100170000C6ED70E0D6E230E0E6E3C0E0F6E14C05D
:1001800007F015C008F016C009F017C00AF00CEC13
:100190000DF0010A70E0FB0EDBCF18F0FC0EDBCF98
:1001A00019F0FD0EDBCF1AF0FE0EDBCF1BF06F0E49
:1001B0000C6E120E0D6E830E0E6E3A0E0F6E18C080
:1001C00007F019C008F01AC009F01BC00AF00CECC7
:1001D0000DF0010A50E1FB0EDBCF18F0FC0EDBCF77
:1001E00019F0FD0EDBCF1AF0FE0EDBCF1BF0C9C0FD
:1001F00008F0CAC009F046EC0BF007C01CF008C0BC
:100200001DF009C01EF00AC01FF01CC00CF01DC07C
:100210000DF01EC00EF01FC00FF018C007F019C07F
:1002200008F01AC009F01BC00AF0ACEC0BF007C0D4
:1002300014F008C015F009C016F00AC017F00C6AD7
:100240000D6A7A0E0E6E450E0F6E14C007F015C0C3
:1002500008F016C009F017C00AF059EC0BF0D6EC04
:100260000CF008C0DEFF09C0DDFFDFCFE6FFCCECFD
:100270000EF0E552FFD0FB0EDBCF14F0FC0EDBCF0F
:1002800015F0FD0EDBCF16F0FE0EDBCF17F06F0E74
:100290000C6E120E0D6E830E0E6E3A0E0F6E14C0A3
:1002A00007F015C008F016C009F017C00AF00CECF2
:1002B0000DF0010A70E0FB0EDBCF18F0FC0EDBCF77
:1002C00019F0FD0EDBCF1AF0FE0EDBCF1BF0170E80
:1002D0000C6EB70E0D6ED10E0E6E380E0F6E18C06E
:1002E00007F019C008F01AC009F01BC00AF015EC9D
:1002F0000DF0010A50E1FB0EDBCF18F0FC0EDBCF56
:1003000019F0FD0EDBCF1AF0FE0EDBCF1BF0C9C0DB
:1003100008F0CAC009F046EC0BF007C01CF008C09A
:100320001DF009C01EF00AC01FF01CC00CF01DC05B
:100330000DF01EC00EF01FC00FF018C007F019C05E
:1003400008F01AC009F01BC00AF0ACEC0BF007C0B3
:1003500014F008C015F009C016F00AC017F00C6AB6
:100360000D6AC80E0E6E430E0F6E14C007F015C056
:1003700008F016C009F017C00AF059EC0BF0D6ECE3
:100380000CF008C0DEFF09C0DDFFDFCFE6FFFAECAE
:100390000EF0E5526FD0FB0EDBCF14F0FC0EDBCF7E
:1003A00015F0FD0EDBCF16F0FE0EDBCF17F0AC0E16
:1003B0000C6EC50E0D6E270E0E6E370E0F6E14C02E
:1003C00007F015C008F016C009F017C00AF015ECC8
:1003D0000DF0010A4FE1FB0EDBCF18F0FC0EDBCF76
:1003E00019F0FD0EDBCF1AF0FE0EDBCF1BF0C9C0FB
:1003F00008F0CAC009F046EC0BF007C01CF008C0BA
:100400001DF009C01EF00AC01FF01CC00CF01DC07A
:100410000DF01EC00EF01FC00FF018C007F019C07D
:1004200008F01AC009F01BC00AF0ACEC0BF007C0D2
:1004300014F008C015F009C016F00AC017F00C6AD5
:100440000D6A200E0E6E420E0F6E14C007F015C01E
:1004500008F016C009F017C00AF059EC0BF0D6EC02
:100460000CF008C0DEFF09C0DDFFDFCFE6FF08ECBF
:100470000FF0E552020EE15C02E2E16AE552E16E44
:10048000E552E7CFD9FF1200D9CFE6FFE1CFD9FF80
:10049000020EE126DE6ADD6AFB0EDBCF14F0FC0EF5
:1004A000DBCF15F0FD0EDBCF16F0FE0EDBCF17F025
:1004B0000A0E0C6ED70E0D6E230E0E6E3C0E0F6ED6
:1004C00014C007F015C008F016C009F017C00AF0F4
:1004D00015EC0DF0010A51E0FB0EDBCF18F0FC0E1D
:1004E000DBCF19F0FD0EDBCF1AF0FE0EDBCF1BF0D9
:1004F000C9C008F0CAC009F046EC0BF007C01CF0F8
:1005000008C01DF009C01EF00AC01FF01CC00CF08E
:100510001DC00DF01EC00EF01FC00FF018C007F078
:1005200019C008F01AC009F01BC00AF0ACEC0BF0BF
:1005300007C014F008C015F009C016F00AC017F083
:100540000C6A400E0D6E1C0E0E6E470E0F6E14C020
:1005500007F015C008F016C009F017C00AF059ECF2
:100560000BF0D6EC0CF008C0DEFF09C0DDFFDFCFDA
:10057000E6FF9FEC0EF0E5528FD1FB0EDBCF14F0BF
:10058000FC0EDBCF15F0FD0EDBCF16F0FE0EDBCF41
:1005900017F00A0E0C6ED70E0D6E230E0E6E3C0E6B
:1005A0000F6E14C007F015C008F016C009F017C090
:1005B0000AF00CEC0DF0010A70E0FB0EDBCF18F036
:1005C000FC0EDBCF19F0FD0EDBCF1AF0FE0EDBCFF9
:1005D0001BF06F0E0C6E120E0D6E830E0E6E3A0E29
:1005E0000F6E18C007F019C008F01AC009F01BC040
:1005F0000AF00CEC0DF0010A50E1FB0EDBCF18F015
:10060000FC0EDBCF19F0FD0EDBCF1AF0FE0EDBCFB8
:100610001BF0C9C008F0CAC009F046EC0BF007C0D7
:100620001CF008C01DF009C01EF00AC01FF01CC05D
:100630000CF01DC00DF01EC00EF01FC00FF018C052
:1006400007F019C008F01AC009F01BC00AF0ACECA2
:100650000BF007C014F008C015F009C016F00AC06E
:1006600017F00C6A0D6A7A0E0E6E450E0F6E14C0EE
:1006700007F015C008F016C009F017C00AF059ECD1
:100680000BF0D6EC0CF008C0DEFF09C0DDFFDFCFB9
:10069000E6FFCCEC0EF0E552FFD0FB0EDBCF14F002
:1006A000FC0EDBCF15F0FD0EDBCF16F0FE0EDBCF20
:1006B00017F06F0E0C6E120E0D6E830E0E6E3A0E4C
:1006C0000F6E14C007F015C008F016C009F017C06F
:1006D0000AF00CEC0DF0010A70E0FB0EDBCF18F015
:1006E000FC0EDBCF19F0FD0EDBCF1AF0FE0EDBCFD8
:1006F0001BF0170E0C6EB70E0D6ED10E0E6E380E6F
:100700000F6E18C007F019C008F01AC009F01BC01E
:100710000AF015EC0DF0010A50E1FB0EDBCF18F0EA
:10072000FC0EDBCF19F0FD0EDBCF1AF0FE0EDBCF97
:100730001BF0C9C008F0CAC009F046EC0BF007C0B6
:100740001CF008C01DF009C01EF00AC01FF01CC03C
:100750000CF01DC00DF01EC00EF01FC00FF018C031
:1007600007F019C008F01AC009F01BC00AF0ACEC81
:100770000BF007C014F008C015F009C016F00AC04D
:1007800017F00C6A0D6AC80E0E6E430E0F6E14C081
:1007900007F015C008F016C009F017C00AF059ECB0
:1007A0000BF0D6EC0CF008C0DEFF09C0DDFFDFCF98
:1007B000E6FFFAEC0EF0E5526FD0FB0EDBCF14F043
:1007C000FC0EDBCF15F0FD0EDBCF16F0FE0EDBCFFF
:1007D00017F0AC0E0C6EC50E0D6E270E0E6E370E9A
:1007E0000F6E14C007F015C008F016C009F017C04E
:1007F0000AF015EC0DF0010A4FE1FB0EDBCF18F00B
:10080000FC0EDBCF19F0FD0EDBCF1AF0FE0EDBCFB6
:100810001BF0C9C008F0CAC009F046EC0BF007C0D5
:100820001CF008C01DF009C01EF00AC01FF01CC05B
:100830000CF01DC00DF01EC00EF01FC00FF018C050
:1008400007F019C008F01AC009F01BC00AF0ACECA0
:100850000BF007C014F008C015F009C016F00AC06C
:1008600017F00C6A0D6A200E0E6E420E0F6E14C049
:1008700007F015C008F016C009F017C00AF059ECCF
:100880000BF0D6EC0CF008C0DEFF09C0DDFFDFCFB7
:10089000E6FF08EC0FF0E552020EE15C02E2E16ACD
:1008A000E552E16EE552E7CFD9FF1200D9CFE6FF5E
:1008B000E1CFD9FF020EE126809080928094815092
:1008C000010B0001606F8150020B01E0010E616FAE
:1008D0008150040B01E0010E626F8150080B01E0B2
:1008E000010E636F8150100B01E0010E646F8150A7
:1008F000200B01E0010E656F8150400B01E0010EFD
:10090000666F8150800B01E0010E676F80808092DE
:1009100080948150010B686F8150020B01E0010E41
:10092000696F8150040B01E0010E6A6F8150080B62
:1009300001E0010E6B6F8150100B01E0010E6C6F36
:100940008150200B01E0010E6D6F8150400B01E0E2
:10095000010E6E6F8150800B01E0010E6F6F809071
:10096000808280948150010B706F8150020B01E0F6
:10097000010E716F8150040B01E0010E726F815006
:10098000080B01E0010E736F8150100B01E0010EA6
:10099000746F8150200B01E0010E756F8150400B88
:1009A00001E0010E766F8150800B01E0010E776F40
:1009B0008080808280948150010B786F8150020B7F
:1009C00001E0010E796F8150040B01E0010E7A6F96
:1009D0008150080B01E0010E7B6F8150100B01E08C
:1009E000010E7C6F8150200B01E0010E7D6F815064
:1009F000400B01E0010E7E6F8150800B01E0010E83
:100A00007F6F8090809280848150010B806F815035
:100A1000020B01E0010E816F8150040B01E0010E19
:100A2000826F8150080B01E0010E836F8150100B23
:100A300001E0010E846F8150200B01E0010E856FF3
:100A40008150400B01E0010E866F8150800B01E068
:100A5000010E876F8080809280848150010B886FA7
:100A60008150020B01E0010E896F8150040B01E0FF
:100A7000010E8A6F8150080B01E0010E8B6F8150CF
:100A8000100B01E0010E8C6F8150200B01E0010E74
:100A90008D6F8150400B01E0010E8E6F8150800BF5
:100AA00001E0010E8F6F8090808280848150010B65
:100AB000906F8150020B01E0010E916F8150040B89
:100AC00001E0010E926F8150080B01E0010E936F5F
:100AD0008150100B01E0010E946F8150200B01E05A
:100AE000010E956F8150400B01E0010E966F815011
:100AF000800B01E0010E976F80808082808481509E
:100B0000010B986F8150020B01E0010E996F81502B
:100B1000040B01E0010E9A6F8150080B01E0010EF9
:100B20009B6F8150100B01E0010E9C6F8150200BD8
:100B300001E0010E9D6F8150400B01E0010E9E6FA0
:100B40008150800B01E0010E9F6F020EE15C02E21A
:100B5000E16AE552E16EE552E7CFD9FF120084B2B7
:100B600013D0E66AE66A200EE66E410EE66E0AECE7
:100B700000F0E552E552E552E55284B205D000019D
:100B8000A31FA41FAF1FB01F80B61AD0E66AE66A83
:100B9000200EE66E410EE66E0AEC00F0E552E552DC
:100BA000E552E55280B60CD00001A56BA66BA7C03C
:100BB000A9F0A8C0AAF0AF51B01102E0AB1FAC1F62
:100BC0001200D9CFE6FFE1CFD9FF040EE126FD0EDA
:100BD000DBCF14F0FE0EDBCF15F00A0E0D6E0E6AA1
:100BE00014C008F015C009F0B0EC0CF004C014F00B
:100BF00005C015F014C0DEFF15C0DDFF0A0E146E2F
:100C0000156AFD0EDBCF08F0FE0EDBCF09F014C035
:100C10000DF015C00EF0B0EC0CF0020E08C0DBFFBA
:100C2000030E09C0DBFF000EDFCF08F0010EDBCFA3
:100C300009F0090E081801E109505AE0080E0818D9
:100C400001E1095050E0070E081801E1095046E0A3
:100C5000060E081801E109503CE0050E081801E1F4
:100C6000095032E0040E081801E1095028E0030E93
:100C7000081801E109501EE0020E081801E10950B0
:100C800014E0010E081801E109500AE0085001E1E2
:100C9000095001E032D083908392839483962DD0C3
:100CA000838083928394839628D0839083828394D5
:100CB000839623D083808382839483961ED08390EF
:100CC00083928384839619D08380839283848396CE
:100CD00014D083908382838483960FD08380838211
:100CE000838483960AD0839083928394838605D0ED
:100CF000838083928394838600D0020EDBCF08F03A
:100D0000030EDBCF09F0090E081801E109505AE083
:100D1000080E081801E1095050E0070E081801E11B
:100D2000095046E0060E081801E109503CE0050EA6
:100D3000081801E1095032E0040E081801E10950D9
:100D400028E0030E081801E109501EE0020E081801
:100D500001E1095014E0010E081801E109500AE010
:100D6000085001E1095001E032D08398839A839CB6
:100D7000839E2DD08388839A839C839E28D08398DA
:100D8000838A839C839E23D08388838A839C839ECB
:100D90001ED08398839A838C839E19D08388839AEC
:100DA000838C839E14D08398838A838C839E0FD0F8
:100DB0008388838A838C839E0AD08398839A839CBA
:100DC000838E05D08388839A839C838E00D0040E03
:100DD000E15C02E2E16AE552E16EE552E7CFD9FF5C
:100DE00012000001A951A71902E1AA51A81903E0B4
:100DF000010EA56FA66BA551A61104E0AB51AC1175
:100E000001E18480A551A61104E1AB51AC1101E1CF
:100E10008490010EAB1901E1AC5101E0A7D3A551BB
:100E2000A61101E1A3D3C551C6110CE0C36BC46B7D
:100E3000000EE66EE66A67EC0EF0E552E552000140
:100E4000C56BC66B200EAD1901E1AE5107E0AE35A2
:100E500004E2AD512008000EAE5502E2AD6BAE6B60
:100E60001F0EAD1901E1AE5101E1B6D21E0EAD1952
:100E700001E1AE5101E19DD21D0EAD1901E1AE516E
:100E800001E189D21C0EAD1901E1AE5101E170D230
:100E90001B0EAD1901E1AE5101E15CD21A0EAD1984
:100EA00001E1AE5101E143D2190EAD1901E1AE519C
:100EB00001E12FD2180EAD1901E1AE5101E116D2B8
:100EC000170EAD1901E1AE5101E102D2160EAD19B6
:100ED00001E1AE5101E1E9D1150EAD1901E1AE51CB
:100EE00001E1D5D1140EAD1901E1AE5101E1BCD142
:100EF000130EAD1901E1AE5101E1A8D1120EAD19E9
:100F000001E1AE5101E18FD1110EAD1901E1AE51F8
:100F100001E17BD1100EAD1901E1AE5101E162D1C9
:100F20000F0EAD1901E1AE5101E14ED10E0EAD191A
:100F300001E1AE5101E135D10D0EAD1901E1AE5126
:100F400001E121D10C0EAD1901E1AE5101E108D151
:100F50000B0EAD1901E1AE5101E1F4D00A0EAD194D
:100F600001E1AE5101E1DBD0090EAD1901E1AE5155
:100F700001E1C7D0080EAD1901E1AE5101E1AED0DB
:100F8000070EAD1901E1AE5101E19AD0060EAD197F
:100F900001E1AE5101E181D0050EAD1901E1AE5183
:100FA0006EE0040EAD1901E1AE5156E0030EAD192D
:100FB00001E1AE5143E0020EAD1901E1AE512BE06B
:100FC000010EAD1901E1AE5118E0AD5101E1AE5194
:100FD00001E010D26A0EB16FBC0EB26F450EB36F56
:100FE000430EB46F320EC76FC86BE80EC16F030EAD
:100FF000C26F010EC56FC66BFDD1B16BB26BB36B27
:10100000B46BC76BC86BE80EC16F030EC26F010EE5
:10101000C56FC66BEFD16A0EB16FBC0EB26F450ED5
:10102000B36F430EB46F320EC76FC86BE80EC16F5B
:10103000030EC26F010EC56FC66BDCD1B16BB26B14
:10104000B36BB46BC76BC86BE80EC16F030EC26F96
:10105000010EC56FC66BCED16A0EB16FBC0EB26FFA
:10106000450EB36F430EB46F320EC76FC86BE80EF8
:10107000C16F030EC26F010EC56FC66BBBD1B16BE2
:10108000B26BB36BB46BC76BC86BE80EC16F030E6A
:10109000C26F010EC56FC66BADD1B00EB16FF20E4F
:1010A000B26F1C0EB36F430EB46F320EC76FC86BB6
:1010B000E80EC16F030EC26F010EC56FC66B9AD1E9
:1010C000B16BB26BB36BB46BC76BC86BE80EC16F1F
:1010D000030EC26F010EC56FC66B8CD1580EB16F77
:1010E000390EB26F6B0EB36F430EB46F320EC76F13
:1010F000C86BE80EC16F030EC26F010EC56FC66BE1
:1011000079D1B16BB26BB36BB46BC76BC86BE80EC4
:10111000C16F030EC26F010EC56FC66B6BD16A0E35
:10112000B16FBC0EB26F450EB36F430EB46F320E8B
:10113000C76FC86BE80EC16F030EC26F010EC56F9B
:10114000C66B58D1B16BB26BB36BB46BC76BC86B6A
:10115000E80EC16F030EC26F010EC56FC66B4AD198
:10116000A00EB16F1A0EB26F140EB36F430EB46FB0
:10117000320EC76FC86BE80EC16F030EC26F010E4F
:10118000C56FC66B37D1B16BB26BB36BB46BC76B4A
:10119000C86BE80EC16F030EC26F010EC56FC66B40
:1011A00029D1A00EB16F1A0EB26F140EB36F430E99
:1011B000B46F320EC76FC86BE80EC16F030EC26FFB
:1011C000010EC56FC66B16D1B16BB26BB36BB46B4E
:1011D000C76BC86BE80EC16F030EC26F010EC56FFF
:1011E000C66B08D1A00EB16F1A0EB26F140EB36F9A
:1011F000430EB46F320EC76FC86BE80EC16F030E9B
:10120000C26F010EC56FC66BF5D0B16BB26BB36B1D
:10121000B46BC76BC86BE80EC16F030EC26F010ED3
:10122000C56FC66BE7D0B00EB16FF20EB26F1C0E79
:10123000B36F430EB46F320EC76FC86BE80EC16F49
:10124000030EC26F010EC56FC66BD4D0B16BB26B0B
:10125000B36BB46BC76BC86BE80EC16F030EC26F84
:10126000010EC56FC66BC6D0580EB16F390EB26F86
:101270006B0EB36F430EB46F320EC76FC86BE80EC0
:10128000C16F030EC26F010EC56FC66BB3D0B16BD9
:10129000B26BB36BB46BC76BC86BE80EC16F030E58
:1012A000C26F010EC56FC66BA5D06A0EB16FBC0EC2
:1012B000B26F450EB36F430EB46F320EC76FC86B7B
:1012C000E80EC16F030EC26F010EC56FC66B92D0E0
:1012D000B16BB26BB36BB46BC76BC86BE80EC16F0D
:1012E000030EC26F010EC56FC66B84D0B00EB16F16
:1012F000F20EB26F1C0EB36F430EB46F320EC76F97
:10130000C86BE80EC16F030EC26F010EC56FC66BCE
:1013100071D0B16BB26BB36BB46BC76BC86BE80EBB
:10132000C16F030EC26F010EC56FC66B63D0580E3E
:10133000B16F390EB26F6B0EB36F430EB46F320ED6
:10134000C76FC86BE80EC16F030EC26F010EC56F89
:10135000C66B50D0B16BB26BB36BB46BC76BC86B61
:10136000E80EC16F030EC26F010EC56FC66B42D08F
:101370006A0EB16FBC0EB26F450EB36F430EB46F01
:10138000320EC76FC86BE80EC16F030EC26F010E3D
:10139000C56FC66B2FD0B16BB26BB36BB46BC76B41
:1013A000C86BE80EC16F030EC26F010EC56FC66B2E
:1013B00021D06A0EB16FBC0EB26F450EB36F430EF3
:1013C000B46F320EC76FC86BE80EC16F030EC26FE9
:1013D000010EC56FC66B0ED0B16BB26BB36BB46B45
:1013E000C76BC86BE80EC16F030EC26F010EC56FED
:1013F000C66B00D00C6A0D6A0E6A0F6AB1C007F0A6
:10140000B2C008F0B3C009F0B4C00AF005EC0DF0AA
:10141000010A6FE0146A156A7A0E166E440E176E92
:10142000B1C00CF0B2C00DF0B3C00EF0B4C00FF0FC
:1014300014C007F015C008F016C009F017C00AF074
:1014400059EC0BF007C0B5F008C0B6F009C0B7F012
:101450000AC0B8F0640E0D6E0E6AC7C008F0C8C0AE
:1014600009F0B0EC0CF008C0C7F009C0C8F0C7C064
:1014700008F0C8C009F046EC0BF007C014F008C033
:1014800015F009C016F00AC017F014C00CF015C012
:101490000DF016C00EF017C00FF0B5C007F0B6C0C3
:1014A00008F0B7C009F0B8C00AF0ACEC0BF007C008
:1014B000B9F008C0BAF009C0BBF00AC0BCF0B9C0AE
:1014C0000CF0BAC00DF0BBC00EF0BCC00FF0B5C040
:1014D00007F0B6C008F0B7C009F0B8C00AF019ECC0
:1014E0000CF007C0BDF008C0BEF009C0BFF00AC0D4
:1014F000C0F00001C251C419E8AE02D0C43504D016
:10150000C351C15DC451C2592EE348EC0EF0F3CF74
:1015100014F0F4CF15F0090E145C3D0E155804E3D9
:101520000001C32B000EC4238480B9C0E6FFBAC0FB
:10153000E6FFBBC0E6FFBCC0E6FF0AEC00F0E552E8
:10154000E552E552E5528480BDC0E6FFBEC0E6FF2D
:10155000BFC0E6FFC0C0E6FF0AEC00F0E552E5526E
:10156000E552E552C6D7AD2B000EAE2312000001A6
:10157000A351E8B08484E8A084941200D9CFE6FF98
:10158000E1CFD9FF040EE126020EDB6A030EDB6A0F
:10159000DE6ADD6ADECF14F0DDCF15F000011550F4
:1015A000A219E8AE02D0A23504D0A151145CA25118
:1015B000155814E2DECFE9FFDDCFEAFF600EE92621
:1015C000000EEA22EF0405E1020EDB2A030E01E31E
:1015D000DB2ADF2A010E01E3DB2ADCD7020EDBCF98
:1015E000A7F0030EDBCFA8F0010EA31901E1A4516F
:1015F00006E1020EDBCFA9F0030EDBCFAAF0020E4C
:10160000DBCF14F0030EDBCF15F014C0F3FF15C0D1
:10161000F4FF040EE15C03E200D0E16AE552E16E02
:10162000E552E7CFD9FF12008F0E9B6E806A816A68
:10163000826A836A846A896A8A6A8B6A8C6A8D6A1A
:10164000080E926E9368946A956A020E966E0F0E5B
:10165000C16E940EE66E83EC0EF0E552AFEC05F031
:1016600056EC04F08BDFF3CF14F0F4CF15F014C078
:10167000E6FF15C0E6FFE1EC05F0E552E55277DF45
:08168000F1EC06F0EBD71200BB
:08168800019E08D0019E09AE8D
:1016900005D0086C091EE86A0922018E09C003F012
:1016A00008C002F0136A126A8E0E046E056A8FEF8C
:1016B0000DF0016ACBEC0DF0E3EC0DF001B673EF29
:1016C0000DF001A205D001BA73EF0DF07AEF0DF025
:1016D00001BA86EF0DF001A005D001B873EF0DF04F
:1016E00086EF0DF001B87AEF0DF0056A7F0E0A243F
:1016F000046EE86A05220F50045EE86A055A1A0E65
:10170000106E0A6A126A136A026A036A0C50075E54
:101710000D50085A0E50095A000E0A5A09E70C508B
:1017200007260D5008220E500922000E0A2201D071
:10173000128AD8900736083609360A36D8901236FB
:10174000133602360336102EE1D709500810071061
:10175000D8A4128A8FEF0DF0016ACBEC0DF0E3EC08
:101760000DF001B673EF0DF001A205D001B873EFD3
:101770000DF07AEF0DF001AA05D001B073EF0DF076
:101780007AEF0DF001B002D001A802D086EF0DF083
:10179000056A0F500A24046EE86A05227E0E045E74
:1017A000E86A055A126A136A026A036A0E5009024D
:1017B000F4CF03F0F3CF02F00D500902F3501326DB
:1017C000F4500222000E03220E500802F35013269A
:1017D000F4500222000E03220C500902F35012268C
:1017E000F4501322000E022203220D500802F3507F
:1017F0001226F4501322000E022203220E5007027A
:10180000F3501226F4501322000E022203220C5031
:101810000802F4501226000E1322022203220D5059
:101820000702F4501226000E1322022203228FEF29
:101830000DF00F7E016ACBEC0DF0E3EC0DF001B67C
:1018400073EF0DF001A20AD001AA03D001BE73EF1D
:101850000DF001A47FEF0DF07CEF0DF001AA05D093
:1018600001AC7FEF0DF07CEF0DF001A00AD001A8D4
:1018700008D001BE04D001A402D088EF0DF08CEF97
:101880000DF0126A056A0F500A5C116E10E307C072
:1018900013F008C002F009C003F00AC010F00CC039
:1018A00007F00DC008F00EC009F0013A09D00CC0D5
:1018B00013F00DC002F00EC003F00FC010F0116C59
:1018C000019E01BC018E10C004F001B0BBEF0DF011
:1018D0001A0E1160BBEF0DF0046A0A6A01A408D069
:1018E000076C081E091E0A1EE86A082209220A223D
:1018F00001AC08D0136C021E031E041EE86A02220B
:1019000003220422066A115207E00A34093208321F
:1019100007320632112EF9D707501326085002223B
:10192000095003220A50042206C012F0019E04AEA0
:101930000BD0126C131E021E031E041EE86A132233
:10194000022203220422018E04A006D0D880033292
:10195000023213321232102A10C004F08FEF0DF051
:10196000006A0EAEB9EF0CF00D6C0E1EE86A0E2286
:10197000001E09AEC1EF0CF0086C091EE86A0922CE
:10198000001EB6EC0EF009BED1EF0CF000AE000C5C
:10199000086C091EE86A0922046C051EE86A052223
:1019A000000C00BEC8EF0CF00188FF0C016ACBEC04
:1019B0000DF001B6E0EF0CF001A20ED001B405D09D
:1019C0007F0E096EFF0E086E1FD0800E096E086A2A
:1019D0001BD0096A086A18D001B0FBD78F0E0A60C5
:1019E000EDD77E0E0A64F5D78E0E0A5C05E0D8901E
:1019F000093208320A2AF8D701A406D0086C091E59
:101A0000E86A092209AEE5D712001EEC0DF001B616
:101A1000000C01B0010C000C1EEC0DF001B6000C26
:101A200001B0000C01B4000C010C1EEC0DF001B66D
:101A3000000C01B0000C01A4000C010C016ACBECFD
:101A40000DF0E3EC0DF001B6120001AE08D001A0DC
:101A500004D001A802D001801200019012000F50A2
:101A60000A5C0BE10E50095C08E10D50085C05E1D1
:101A70000C50075C02E101801200D8A002D0018E58
:101A800010D00A500FC00AF00F6E09500EC009F0B6
:101A90000E6E08500DC008F00D6E07500CC007F018
:101AA0000C6E0F500A5C10E0FF0F09E0019001B4CA
:101AB00003D001AE0184120001AE019412000F2A7E
:101AC000D8900E320D320C320C50075E0D50085A71
:101AD0000E50095A09BEEAD7D8900736083609369B
:101AE0000A2EF8D7C8D77F0E0A6EFF0E096E086E51
:101AF000076E12007F0E01BEFF0E0A6E02D07F0E2F
:101B00000A6E800E096E086A076AF3D701AE04D028
:101B1000800E0A6E096AF7D70A6A096AF4D7035079
:101B2000021013101210F8E005BEF0D703BE0CD05F
:101B300004500510EBE0D890123613360236033607
:101B40000406D8A00506F2D70550D4E10428D2E057
:101B500012AE11D07F0E121402E113A00CD0132A82
:101B6000E86A0222032207E3D880033202321332EA
:101B7000042A0428BFE00450C9E013C007F002C0E3
:101B800008F00334096E04300A6E09320A9E01BE61
:101B90000A8E79EF0DF009360A3602E30184017EE0
:101BA00006E101800A6A096A086A076A12000A28BF
:101BB00003E0D88009321200D890093202E1018294
:101BC0001200018612000E360F3602E3018C017EF0
:101BD00006E101880F6A0E6A0D6A0C6A12000F286E
:101BE00003E0D8800E321200D8900E32EAE1018A6A
:021BF0001200E1
:0E1BF200060EF66E000EF76E000EF86E000185
:101C00000900F550D06F0900F550D16F03E1D0679E
:101C100001D03DD00900F550CB6F0900F550CC6FD5
:101C20000900F550CD6F09000900F550E96E090073
:101C3000F550EA6E090009000900F550CE6F090061
:101C4000F550CF6F09000900F6CFD2F0F7CFD3F0EF
:101C5000F8CFD4F0CBC0F6FFCCC0F7FFCDC0F8FF73
:101C60000001CE5302E1CF5307E00900F550EE6EBC
:101C7000CE07F8E2CF07F9D7D2C0F6FFD3C0F7FFFF
:101C8000D4C0F8FF0001D007000ED15BBFD712000F
:101C9000D9CFE6FFDACFE6FFE1CFD9FFE2CFDAFF17
:101CA000E652E652D650DF6E010ED7CFDBFFDECF15
:101CB00014F0DDCF15F014C0F3FF15C0F4FFE552AA
:0E1CC000E552E552E5CFDAFFE7CFD9FF12007B
:021CCE00D9CF6C
:101CD000E6FFDACFE6FFE1CFD9FFE2CFDAFFE65247
:101CE000E652FC0EDBCFDEFFDBCFDDFF010EDB506B
:101CF000D76EDF50D66EE552E552E552E5CFDAFFFA
:061D0000E7CFD9FF12003D
:0A1D0600D9CFE6FFDACFE6FFE1CF08
:101D1000D9FFE2CFDAFFFD0EDB507F0BD56ED76A1D
:101D2000D66AF294FD0EDBAE02D0F28A01D0F29AAE
:0E1D3000D58EE552E5CFDAFFE7CFD9FF1200DE
:021D3E00FF0E96
:101D4000E350216EEF0E01D0F30EE76EE72EA6EF03
:101D50000EF00C0E206EE76AE72EACEF0EF0202E90
:0C1D6000ABEF0EF0212EA4EF0EF01200ED
:041D6C00056A046A96
:101D7000100EE76ED89008360936043605360D5039
:101D8000045C0E50055805E30D50045E0E50055AD4
:081D9000082AE72EF0D712002B
:081D9800FF0EE350216E480E1E
:101DA00001D04C0EE76EE72EFED7E76AE72EFED78E
:081DB000212EF7D700001200FC
:081DB800000EF36E00EE00F0D6
:101DC000080E01D81200EA6002D0EE6AFCD7F35088
:081DD000E9601200EE6AFCD785
:081DD80013EE00F023EE00F011
:101DE000F86A019CF9EC0DF013EC0FF014EC0BF019
:041DF000FBD712000B
:0C1DF400FF0EE350216E1B0E00D001D04A
:101E0000200EE76EE72EFED7212EFAD700D0120063
:101E1000FF0EE350E84E1200000000D000D000D0CA
:061E2000E82EFAD71200C3
:021E26001200A8
:081E2800400001000000000071
:101E300000000100000000000000000000000000A1
:101E40000000000000000000000000000100000091
:021E5000000987
:020000040030CA
:0100000000FF
:010002000EEF
:010003001FDD
:010005008179
:010006008178
:00000001FF
