:020000040000FA
:060000003FEF09F01200C1
:0A0006000100CE120000A10000006E
:040010000E000000DE
:0C001400D9CFE6FFE1CFD9FF020EE126B4
:10002000DE6ADD6AFB0EDBCF14F0FC0EDBCF15F0D1
:10003000FD0EDBCF16F0FE0EDBCF17F00C6A0D6A5B
:100040007A0E0E6E440E0F6E14C007F015C008F045
:1000500016C009F017C00AF0F4EC06F0FB0E07C05A
:10006000DBFFFC0E08C0DBFFFD0E09C0DBFFFE0E50
:100070000AC0DBFFFB0EDBCF14F0FC0EDBCF15F06C
:10008000FD0EDBCF16F0FE0EDBCF17F00A0E0C6E66
:10009000D70E0D6E230E0E6E3C0E0F6E14C007F0C1
:1000A00015C008F016C009F017C00AF0BFEC07F041
:1000B000010A51E0FB0EDBCF18F0FC0EDBCF19F08C
:1000C000FD0EDBCF1AF0FE0EDBCF1BF0ADC008F04B
:1000D000AEC009F08EEC06F007C01CF008C01DF0A1
:1000E00009C01EF00AC01FF01CC00CF01DC00DF0AE
:1000F0001EC00EF01FC00FF018C007F019C008F0A6
:100100001AC009F01BC00AF0F4EC06F007C014F0A6
:1001100008C015F009C016F00AC017F00C6A400EAE
:100120000D6E1C0E0E6E470E0F6E14C007F015C03C
:1001300008F016C009F017C00AF0A1EC06F087EC31
:1001400007F008C0DEFF09C0DDFFDFCFE6FFF2ECFD
:1001500008F0E5528FD1FB0EDBCF14F0FC0EDBCFA5
:1001600015F0FD0EDBCF16F0FE0EDBCF17F00A0EFA
:100170000C6ED70E0D6E230E0E6E3C0E0F6E14C05D
:1001800007F015C008F016C009F017C00AF0B6EC69
:1001900007F0010A70E0FB0EDBCF18F0FC0EDBCF9E
:1001A00019F0FD0EDBCF1AF0FE0EDBCF1BF06F0E49
:1001B0000C6E120E0D6E830E0E6E3A0E0F6E18C080
:1001C00007F019C008F01AC009F01BC00AF0B6EC1D
:1001D00007F0010A50E1FB0EDBCF18F0FC0EDBCF7D
:1001E00019F0FD0EDBCF1AF0FE0EDBCF1BF0ADC019
:1001F00008F0AEC009F08EEC06F007C01CF008C095
:100200001DF009C01EF00AC01FF01CC00CF01DC07C
:100210000DF01EC00EF01FC00FF018C007F019C07F
:1002200008F01AC009F01BC00AF0F4EC06F007C091
:1002300014F008C015F009C016F00AC017F00C6AD7
:100240000D6A7A0E0E6E450E0F6E14C007F015C0C3
:1002500008F016C009F017C00AF0A1EC06F087EC10
:1002600007F008C0DEFF09C0DDFFDFCFE6FF1FECAF
:1002700009F0E552FFD0FB0EDBCF14F0FC0EDBCF14
:1002800015F0FD0EDBCF16F0FE0EDBCF17F06F0E74
:100290000C6E120E0D6E830E0E6E3A0E0F6E14C0A3
:1002A00007F015C008F016C009F017C00AF0B6EC48
:1002B00007F0010A70E0FB0EDBCF18F0FC0EDBCF7D
:1002C00019F0FD0EDBCF1AF0FE0EDBCF1BF0170E80
:1002D0000C6EB70E0D6ED10E0E6E380E0F6E18C06E
:1002E00007F019C008F01AC009F01BC00AF0BFECF3
:1002F00007F0010A50E1FB0EDBCF18F0FC0EDBCF5C
:1003000019F0FD0EDBCF1AF0FE0EDBCF1BF0ADC0F7
:1003100008F0AEC009F08EEC06F007C01CF008C073
:100320001DF009C01EF00AC01FF01CC00CF01DC05B
:100330000DF01EC00EF01FC00FF018C007F019C05E
:1003400008F01AC009F01BC00AF0F4EC06F007C070
:1003500014F008C015F009C016F00AC017F00C6AB6
:100360000D6AC80E0E6E430E0F6E14C007F015C056
:1003700008F016C009F017C00AF0A1EC06F087ECEF
:1003800007F008C0DEFF09C0DDFFDFCFE6FF4DEC60
:1003900009F0E5526FD0FB0EDBCF14F0FC0EDBCF83
:1003A00015F0FD0EDBCF16F0FE0EDBCF17F0AC0E16
:1003B0000C6EC50E0D6E270E0E6E370E0F6E14C02E
:1003C00007F015C008F016C009F017C00AF0BFEC1E
:1003D00007F0010A4FE1FB0EDBCF18F0FC0EDBCF7C
:1003E00019F0FD0EDBCF1AF0FE0EDBCF1BF0ADC017
:1003F00008F0AEC009F08EEC06F007C01CF008C093
:100400001DF009C01EF00AC01FF01CC00CF01DC07A
:100410000DF01EC00EF01FC00FF018C007F019C07D
:1004200008F01AC009F01BC00AF0F4EC06F007C08F
:1004300014F008C015F009C016F00AC017F00C6AD5
:100440000D6A200E0E6E420E0F6E14C007F015C01E
:1004500008F016C009F017C00AF0A1EC06F087EC0E
:1004600007F008C0DEFF09C0DDFFDFCFE6FF5BEC71
:1004700009F0E552020EE15C02E2E16AE552E16E4A
:10048000E552E7CFD9FF1200D9CFE6FFE1CFD9FF80
:10049000020EE126DE6ADD6AFB0EDBCF14F0FC0EF5
:1004A000DBCF15F0FD0EDBCF16F0FE0EDBCF17F025
:1004B0000A0E0C6ED70E0D6E230E0E6E3C0E0F6ED6
:1004C00014C007F015C008F016C009F017C00AF0F4
:1004D000BFEC07F0010A51E0FB0EDBCF18F0FC0E79
:1004E000DBCF19F0FD0EDBCF1AF0FE0EDBCF1BF0D9
:1004F000ADC008F0AEC009F08EEC06F007C01CF0ED
:1005000008C01DF009C01EF00AC01FF01CC00CF08E
:100510001DC00DF01EC00EF01FC00FF018C007F078
:1005200019C008F01AC009F01BC00AF0F4EC06F07C
:1005300007C014F008C015F009C016F00AC017F083
:100540000C6A400E0D6E1C0E0E6E470E0F6E14C020
:1005500007F015C008F016C009F017C00AF0A1ECAA
:1005600006F087EC07F008C0DEFF09C0DDFFDFCF33
:10057000E6FFF2EC08F0E5528FD1FB0EDBCF14F072
:10058000FC0EDBCF15F0FD0EDBCF16F0FE0EDBCF41
:1005900017F00A0E0C6ED70E0D6E230E0E6E3C0E6B
:1005A0000F6E14C007F015C008F016C009F017C090
:1005B0000AF0B6EC07F0010A70E0FB0EDBCF18F092
:1005C000FC0EDBCF19F0FD0EDBCF1AF0FE0EDBCFF9
:1005D0001BF06F0E0C6E120E0D6E830E0E6E3A0E29
:1005E0000F6E18C007F019C008F01AC009F01BC040
:1005F0000AF0B6EC07F0010A50E1FB0EDBCF18F071
:10060000FC0EDBCF19F0FD0EDBCF1AF0FE0EDBCFB8
:100610001BF0ADC008F0AEC009F08EEC06F007C0CC
:100620001CF008C01DF009C01EF00AC01FF01CC05D
:100630000CF01DC00DF01EC00EF01FC00FF018C052
:1006400007F019C008F01AC009F01BC00AF0F4EC5A
:1006500006F007C014F008C015F009C016F00AC073
:1006600017F00C6A0D6A7A0E0E6E450E0F6E14C0EE
:1006700007F015C008F016C009F017C00AF0A1EC89
:1006800006F087EC07F008C0DEFF09C0DDFFDFCF12
:10069000E6FF1FEC09F0E552FFD0FB0EDBCF14F0B4
:1006A000FC0EDBCF15F0FD0EDBCF16F0FE0EDBCF20
:1006B00017F06F0E0C6E120E0D6E830E0E6E3A0E4C
:1006C0000F6E14C007F015C008F016C009F017C06F
:1006D0000AF0B6EC07F0010A70E0FB0EDBCF18F071
:1006E000FC0EDBCF19F0FD0EDBCF1AF0FE0EDBCFD8
:1006F0001BF0170E0C6EB70E0D6ED10E0E6E380E6F
:100700000F6E18C007F019C008F01AC009F01BC01E
:100710000AF0BFEC07F0010A50E1FB0EDBCF18F046
:10072000FC0EDBCF19F0FD0EDBCF1AF0FE0EDBCF97
:100730001BF0ADC008F0AEC009F08EEC06F007C0AB
:100740001CF008C01DF009C01EF00AC01FF01CC03C
:100750000CF01DC00DF01EC00EF01FC00FF018C031
:1007600007F019C008F01AC009F01BC00AF0F4EC39
:1007700006F007C014F008C015F009C016F00AC052
:1007800017F00C6A0D6AC80E0E6E430E0F6E14C081
:1007900007F015C008F016C009F017C00AF0A1EC68
:1007A00006F087EC07F008C0DEFF09C0DDFFDFCFF1
:1007B000E6FF4DEC09F0E5526FD0FB0EDBCF14F0F5
:1007C000FC0EDBCF15F0FD0EDBCF16F0FE0EDBCFFF
:1007D00017F0AC0E0C6EC50E0D6E270E0E6E370E9A
:1007E0000F6E14C007F015C008F016C009F017C04E
:1007F0000AF0BFEC07F0010A4FE1FB0EDBCF18F067
:10080000FC0EDBCF19F0FD0EDBCF1AF0FE0EDBCFB6
:100810001BF0ADC008F0AEC009F08EEC06F007C0CA
:100820001CF008C01DF009C01EF00AC01FF01CC05B
:100830000CF01DC00DF01EC00EF01FC00FF018C050
:1008400007F019C008F01AC009F01BC00AF0F4EC58
:1008500006F007C014F008C015F009C016F00AC071
:1008600017F00C6A0D6A200E0E6E420E0F6E14C049
:1008700007F015C008F016C009F017C00AF0A1EC87
:1008800006F087EC07F008C0DEFF09C0DDFFDFCF10
:10089000E6FF5BEC09F0E552020EE15C02E2E16A80
:1008A000E552E16EE552E7CFD9FF1200D9CFE6FF5E
:1008B000E1CFD9FF020EE126809080928094815092
:1008C000010B0001606F8150020B01E0010E616FAE
:1008D0008150040B01E0010E626F8150080B01E0B2
:1008E000010E636F8150100B01E0010E646F8150A7
:1008F000200B01E0010E656F8150400B01E0010EFD
:10090000666F8250010B686F8250020B01E0010E8E
:10091000696F8250040B01E0010E6A6F020EE15C08
:1009200002E2E16AE552E16EE552E7CFD9FF12003B
:1009300084B218D0E66AE66AA00EE66E400EE66E55
:100940000AEC00F0E552E552E552E55284B20AD0D5
:100950000001A31FA41FA56BA66B8490A7C0A9F0DC
:10096000A8C0AAF080B60ED0E66AE66AA00EE66ECF
:10097000400EE66E0AEC00F0E552E552E552E55213
:1009800080B600D01200D9CFE6FFE1CFD9FF040E28
:10099000E126FD0EDBCF14F0FE0EDBCF15F00A0EC4
:1009A0000D6E0E6A14C008F015C009F061EC07F076
:1009B00004C014F005C015F014C0DEFF15C0DDFF43
:1009C0000A0E146E156AFD0EDBCF08F0FE0EDBCFAB
:1009D00009F014C00DF015C00EF061EC07F0020E26
:1009E00008C0DBFF030E09C0DBFF000EDFCF08F0FD
:1009F000010EDBCF09F0090E081801E109505AE099
:100A0000080E081801E1095050E0070E081801E12E
:100A1000095046E0060E081801E109503CE0050EB9
:100A2000081801E1095032E0040E081801E10950EC
:100A300028E0030E081801E109501EE0020E081814
:100A400001E1095014E0010E081801E109500AE023
:100A5000085001E1095001E032D08398839A839CC9
:100A6000839E2DD08388839A839C839E28D08398ED
:100A7000838A839C839E23D08388838A839C839EDE
:100A80001ED08398839A838C839E19D08388839AFF
:100A9000838C839E14D08398838A838C839E0FD00B
:100AA0008388838A838C839E0AD08398839A839CCD
:100AB000838E05D08388839A839C838E00D0020E18
:100AC000DBCF08F0030EDBCF09F0090E081801E1B7
:100AD00009505AE0080E081801E1095050E0070ECD
:100AE000081801E1095046E0060E081801E1095016
:100AF0003CE0050E081801E1095032E0040E081828
:100B000001E1095028E0030E081801E109501EE038
:100B1000020E081801E1095014E0010E081801E165
:100B200009500AE0085001E1095001E032D08390F9
:100B30008392839483962DD083808392839483962B
:100B400028D0839083828394839623D0838083826A
:100B5000839483961ED0839083928384839619D046
:100B6000838083928384839614D08390838283844A
:100B700083960FD083808382838483960AD0839068
:100B800083928394838605D0838083928394838623
:100B900000D0040EE15C02E2E16AE552E16EE5524A
:100BA000E7CFD9FF12000001A951A71902E1AA510C
:100BB000A81903E0010EA56FA66B010EA51901E1AE
:100BC000A6510DE18480E66AE66AE66A3F0EE66EAB
:100BD0000AEC00F0E552E552E552E552849012002D
:100BE0000001A351E8B08484E8A084941200D9CF16
:100BF000E6FFE1CFD9FF040EE126020EDB6A030E09
:100C0000DB6ADE6ADD6ADECF14F0DDCF15F00001AD
:100C10001550A219E8AE02D0A23504D0A151145C3F
:100C2000A251155814E2DECFE9FFDDCFEAFF600ED6
:100C3000E926000EEA22EF5005E1020EDB2A030E40
:100C400001E3DB2ADF2A010E01E3DB2ADCD7020EF7
:100C5000DBCFA7F0030EDBCFA8F0010EA31901E153
:100C6000A45106E1020EDBCFA9F0030EDBCFAAF000
:100C7000020EDBCF14F0030EDBCF15F014C0F3FF30
:100C800015C0F4FF040EE15C03E200D0E16AE55216
:100C9000E16EE552E7CFD9FF1200806A816A826A6D
:100CA000836A846A896A8A6A8B6A8C6A8D6A180E7A
:100CB000926E93689468956A020E966E0F0EC16EDE
:100CC0000001AB6BAC6BAC51A219E8AE02D0A235FF
:100CD00004D0A151AB5DA251AC590CE2600EAB2522
:100CE000E96E000EAC21EA6E010EEF6EAB2B000E2A
:100CF000AC23E9D71DDEDADD7ADFF3CF14F0F4CFD1
:100D000015F014C0E6FF15C0E6FF3DDEE552E552E2
:080D100067DF49DFEFD7120095
:080D1800019E08D0019E09AE06
:100D200005D0086C091EE86A0922018E09C003F08B
:100D300008C002F0136A126A8E0E046E056A39EF5B
:100D400008F0016A75EC08F08DEC08F001B61DEFB3
:100D500008F001A205D001BA1DEF08F024EF08F059
:100D600001BA30EF08F001A005D001B81DEF08F07E
:100D700030EF08F001B824EF08F0056A7F0E0A246E
:100D8000046EE86A05220F50045EE86A055A1A0EDE
:100D9000106E0A6A126A136A026A036A0C50075ECE
:100DA0000D50085A0E50095A000E0A5A09E70C5005
:100DB00007260D5008220E500922000E0A2201D0EB
:100DC000128AD8900736083609360A36D890123675
:100DD000133602360336102EE1D7095008100710DB
:100DE000D8A4128A39EF08F0016A75EC08F08DEC8E
:100DF00008F001B61DEF08F001A205D001B81DEF03
:100E000008F024EF08F001AA05D001B01DEF08F0AA
:100E100024EF08F001B002D001A802D030EF08F0B2
:100E2000056A0F500A24046EE86A05227E0E045EED
:100E3000E86A055A126A136A026A036A0E500902C6
:100E4000F4CF03F0F3CF02F00D500902F350132654
:100E5000F4500222000E03220E500802F350132613
:100E6000F4500222000E03220C500902F350122605
:100E7000F4501322000E022203220D500802F350F8
:100E80001226F4501322000E022203220E500702F3
:100E9000F3501226F4501322000E022203220C50AB
:100EA0000802F4501226000E1322022203220D50D3
:100EB0000702F4501226000E13220222032239EFF9
:100EC00008F0006A0EAE6AEF07F00D6C0E1EE86ABD
:100ED0000E22001E09AE72EF07F0086C091EE86AC8
:100EE0000922001E09EC09F009BE82EF07F000AEEE
:100EF000000C086C091EE86A0922046C051EE86AE9
:100F00000522000C00BE79EF07F00188FF0C016A92
:100F100075EC08F001B691EF07F001A20ED001B414
:100F200005D07F0E096EFF0E086E1FD0800E096E71
:100F3000086A1BD0096A086A18D001B0FBD78F0E67
:100F40000A60EDD77E0E0A64F5D78E0E0A5C05E0C6
:100F5000D890093208320A2AF8D701A406D0086CC2
:100F6000091EE86A092209AEE5D71200C8EC07F0AD
:100F700001B6000C01B0000C01B4000C010CC8EC6F
:100F800007F001B6000C01B0000C01A4000C010C2C
:100F9000016A75EC08F08DEC08F001B6120001AEA4
:100FA00008D001A004D001A802D001801200019055
:100FB00012000F500A5C0BE10E50095C08E10D5065
:100FC000085C05E10C50075C02E101801200D8A02A
:100FD00002D0018E10D00A500FC00AF00F6E0950D7
:100FE0000EC009F00E6E08500DC008F00D6E0750CF
:100FF0000CC007F00C6E0F500A5C10E0FF0F09E008
:10100000019001B403D001AE0184120001AE01943D
:1010100012000F2AD8900E320D320C320C50075E9F
:101020000D50085A0E50095A09BEEAD7D890073613
:10103000083609360A2EF8D7C8D77F0E0A6EFF0E7B
:10104000096E086E076E12007F0E01BEFF0E0A6E5B
:1010500002D07F0E0A6E800E096E086A076AF3D707
:1010600001AE04D0800E0A6E096AF7D70A6A096ACF
:10107000F4D70350021013101210F8E005BEF0D799
:1010800003BE0CD004500510EBE0D8901236133696
:10109000023603360406D8A00506F2D70550D4E17F
:1010A0000428D2E012AE11D07F0E121402E113A078
:1010B0000CD0132AE86A0222032207E3D880033205
:1010C00002321332042A0428BFE00450C9E013C0DE
:1010D00007F002C008F00334096E04300A6E0932CA
:1010E0000A9E01BE0A8E23EF08F009360A3602E393
:1010F0000184017E06E101800A6A096A086A076ABA
:1011000012000A2803E0D88009321200D890093270
:1011100002E101821200018612000E360F3602E350
:10112000018C017E06E101880F6A0E6A0D6A0C6A65
:1011300012000F2803E0D8800E321200D8900E3231
:06114000EAE1018A120041
:0A114600060EF66E000EF76E000EA6
:10115000F86E00010900F550B46F0900F550B56F45
:1011600003E1B46701D03DD00900F550AF6F09002D
:10117000F550B06F0900F550B16F09000900F55046
:10118000E96E0900F550EA6E090009000900F55002
:10119000B26F0900F550B36F09000900F6CFB6F041
:1011A000F7CFB7F0F8CFB8F0AFC0F6FFB0C0F7FF99
:1011B000B1C0F8FF0001B25302E1B35307E00900E8
:1011C000F550EE6EB207F8E2B307F9D7B6C0F6FFF6
:1011D000B7C0F7FFB8C0F8FF0001B407000EB55B59
:0411E000BFD7120063
:0C11E400FF0EE350216EEF0E01D0F30E61
:1011F000E76EE72EF9EF08F00C0E206EE76AE72E97
:10120000FFEF08F0202EFEEF08F0212EF7EF08F098
:021210001200CA
:0E121200056A046A100EE76ED8900836093699
:10122000043605360D50045C0E50055805E30D508C
:0E123000045E0E50055A082AE72EF0D7120071
:02123E00FF0EA1
:10124000E350216E480E01D04C0EE76EE72EFED71C
:0E125000E76AE72EFED7212EF7D70000120026
:02125E00000E80
:10126000F36E00EE00F0080E01D81200EA6002D022
:0E127000EE6AFCD7F350E9601200EE6AFCD77C
:02127E0013EE6D
:1012800000F023EE00F0F86A019CA3EC08F066EC95
:0A12900009F04DEC06F0FBD7120048
:06129A00FF0EE350216E7F
:1012A0001B0E00D001D0200EE76EE72EFED7212EB8
:0612B000FAD700D0120085
:0A12B600FF0EE350E84E12000000A6
:0C12C00000D000D000D0E82EFAD71200B9
:0212CC0012000E
:0212CE004000DE
:0C12D00001000000000000000000002DE4
:020000040030CA
:0100000024DB
:010001000EF0
:0100020038C5
:010003001EDE
:010005008179
:010006008178
:00000001FF
