:020000040000FA
:0600000006EF0AF01200F9
:0A00060001005C140000A1000000DE
:040010000C000000E0
:0C001400D9CFE6FFE1CFD9FF020EE126B4
:10002000DE6ADD6AFB0EDBCF14F0FC0EDBCF15F0D1
:10003000FD0EDBCF16F0FE0EDBCF17F00C6A0D6A5B
:100040007A0E0E6E440E0F6E14C007F015C008F045
:1000500016C009F017C00AF0BBEC07F0FB0E07C092
:10006000DBFFFC0E08C0DBFFFD0E09C0DBFFFE0E50
:100070000AC0DBFFFB0EDBCF14F0FC0EDBCF15F06C
:10008000FD0EDBCF16F0FE0EDBCF17F00A0E0C6E66
:10009000D70E0D6E230E0E6E3C0E0F6E14C007F0C1
:1000A00015C008F016C009F017C00AF086EC08F079
:1000B000010A51E0FB0EDBCF18F0FC0EDBCF19F08C
:1000C000FD0EDBCF1AF0FE0EDBCF1BF0ABC008F04D
:1000D000ACC009F055EC07F007C01CF008C01DF0DB
:1000E00009C01EF00AC01FF01CC00CF01DC00DF0AE
:1000F0001EC00EF01FC00FF018C007F019C008F0A6
:100100001AC009F01BC00AF0BBEC07F007C014F0DE
:1001100008C015F009C016F00AC017F00C6A400EAE
:100120000D6E1C0E0E6E470E0F6E14C007F015C03C
:1001300008F016C009F017C00AF068EC07F04EECA2
:1001400008F008C0DEFF09C0DDFFDFCFE6FFB9EC35
:1001500009F0E5528FD1FB0EDBCF14F0FC0EDBCFA4
:1001600015F0FD0EDBCF16F0FE0EDBCF17F00A0EFA
:100170000C6ED70E0D6E230E0E6E3C0E0F6E14C05D
:1001800007F015C008F016C009F017C00AF07DECA2
:1001900008F0010A70E0FB0EDBCF18F0FC0EDBCF9D
:1001A00019F0FD0EDBCF1AF0FE0EDBCF1BF06F0E49
:1001B0000C6E120E0D6E830E0E6E3A0E0F6E18C080
:1001C00007F019C008F01AC009F01BC00AF07DEC56
:1001D00008F0010A50E1FB0EDBCF18F0FC0EDBCF7C
:1001E00019F0FD0EDBCF1AF0FE0EDBCF1BF0ABC01B
:1001F00008F0ACC009F055EC07F007C01CF008C0CF
:100200001DF009C01EF00AC01FF01CC00CF01DC07C
:100210000DF01EC00EF01FC00FF018C007F019C07F
:1002200008F01AC009F01BC00AF0BBEC07F007C0C9
:1002300014F008C015F009C016F00AC017F00C6AD7
:100240000D6A7A0E0E6E450E0F6E14C007F015C0C3
:1002500008F016C009F017C00AF068EC07F04EEC81
:1002600008F008C0DEFF09C0DDFFDFCFE6FFE6ECE7
:1002700009F0E552FFD0FB0EDBCF14F0FC0EDBCF14
:1002800015F0FD0EDBCF16F0FE0EDBCF17F06F0E74
:100290000C6E120E0D6E830E0E6E3A0E0F6E14C0A3
:1002A00007F015C008F016C009F017C00AF07DEC81
:1002B00008F0010A70E0FB0EDBCF18F0FC0EDBCF7C
:1002C00019F0FD0EDBCF1AF0FE0EDBCF1BF0170E80
:1002D0000C6EB70E0D6ED10E0E6E380E0F6E18C06E
:1002E00007F019C008F01AC009F01BC00AF086EC2C
:1002F00008F0010A50E1FB0EDBCF18F0FC0EDBCF5B
:1003000019F0FD0EDBCF1AF0FE0EDBCF1BF0ABC0F9
:1003100008F0ACC009F055EC07F007C01CF008C0AD
:100320001DF009C01EF00AC01FF01CC00CF01DC05B
:100330000DF01EC00EF01FC00FF018C007F019C05E
:1003400008F01AC009F01BC00AF0BBEC07F007C0A8
:1003500014F008C015F009C016F00AC017F00C6AB6
:100360000D6AC80E0E6E430E0F6E14C007F015C056
:1003700008F016C009F017C00AF068EC07F04EEC60
:1003800008F008C0DEFF09C0DDFFDFCFE6FF14EC98
:100390000AF0E5526FD0FB0EDBCF14F0FC0EDBCF82
:1003A00015F0FD0EDBCF16F0FE0EDBCF17F0AC0E16
:1003B0000C6EC50E0D6E270E0E6E370E0F6E14C02E
:1003C00007F015C008F016C009F017C00AF086EC57
:1003D00008F0010A4FE1FB0EDBCF18F0FC0EDBCF7B
:1003E00019F0FD0EDBCF1AF0FE0EDBCF1BF0ABC019
:1003F00008F0ACC009F055EC07F007C01CF008C0CD
:100400001DF009C01EF00AC01FF01CC00CF01DC07A
:100410000DF01EC00EF01FC00FF018C007F019C07D
:1004200008F01AC009F01BC00AF0BBEC07F007C0C7
:1004300014F008C015F009C016F00AC017F00C6AD5
:100440000D6A200E0E6E420E0F6E14C007F015C01E
:1004500008F016C009F017C00AF068EC07F04EEC7F
:1004600008F008C0DEFF09C0DDFFDFCFE6FF22ECA9
:100470000AF0E552020EE15C02E2E16AE552E16E49
:10048000E552E7CFD9FF1200D9CFE6FFE1CFD9FF80
:10049000020EE126DE6ADD6AFB0EDBCF14F0FC0EF5
:1004A000DBCF15F0FD0EDBCF16F0FE0EDBCF17F025
:1004B0000A0E0C6ED70E0D6E230E0E6E3C0E0F6ED6
:1004C00014C007F015C008F016C009F017C00AF0F4
:1004D00086EC08F0010A51E0FB0EDBCF18F0FC0EB1
:1004E000DBCF19F0FD0EDBCF1AF0FE0EDBCF1BF0D9
:1004F000ABC008F0ACC009F055EC07F007C01CF029
:1005000008C01DF009C01EF00AC01FF01CC00CF08E
:100510001DC00DF01EC00EF01FC00FF018C007F078
:1005200019C008F01AC009F01BC00AF0BBEC07F0B4
:1005300007C014F008C015F009C016F00AC017F083
:100540000C6A400E0D6E1C0E0E6E470E0F6E14C020
:1005500007F015C008F016C009F017C00AF068ECE3
:1005600007F04EEC08F008C0DEFF09C0DDFFDFCF6A
:10057000E6FFB9EC09F0E5528FD1FB0EDBCF14F0AA
:10058000FC0EDBCF15F0FD0EDBCF16F0FE0EDBCF41
:1005900017F00A0E0C6ED70E0D6E230E0E6E3C0E6B
:1005A0000F6E14C007F015C008F016C009F017C090
:1005B0000AF07DEC08F0010A70E0FB0EDBCF18F0CA
:1005C000FC0EDBCF19F0FD0EDBCF1AF0FE0EDBCFF9
:1005D0001BF06F0E0C6E120E0D6E830E0E6E3A0E29
:1005E0000F6E18C007F019C008F01AC009F01BC040
:1005F0000AF07DEC08F0010A50E1FB0EDBCF18F0A9
:10060000FC0EDBCF19F0FD0EDBCF1AF0FE0EDBCFB8
:100610001BF0ABC008F0ACC009F055EC07F007C008
:100620001CF008C01DF009C01EF00AC01FF01CC05D
:100630000CF01DC00DF01EC00EF01FC00FF018C052
:1006400007F019C008F01AC009F01BC00AF0BBEC93
:1006500007F007C014F008C015F009C016F00AC072
:1006600017F00C6A0D6A7A0E0E6E450E0F6E14C0EE
:1006700007F015C008F016C009F017C00AF068ECC2
:1006800007F04EEC08F008C0DEFF09C0DDFFDFCF49
:10069000E6FFE6EC09F0E552FFD0FB0EDBCF14F0ED
:1006A000FC0EDBCF15F0FD0EDBCF16F0FE0EDBCF20
:1006B00017F06F0E0C6E120E0D6E830E0E6E3A0E4C
:1006C0000F6E14C007F015C008F016C009F017C06F
:1006D0000AF07DEC08F0010A70E0FB0EDBCF18F0A9
:1006E000FC0EDBCF19F0FD0EDBCF1AF0FE0EDBCFD8
:1006F0001BF0170E0C6EB70E0D6ED10E0E6E380E6F
:100700000F6E18C007F019C008F01AC009F01BC01E
:100710000AF086EC08F0010A50E1FB0EDBCF18F07E
:10072000FC0EDBCF19F0FD0EDBCF1AF0FE0EDBCF97
:100730001BF0ABC008F0ACC009F055EC07F007C0E7
:100740001CF008C01DF009C01EF00AC01FF01CC03C
:100750000CF01DC00DF01EC00EF01FC00FF018C031
:1007600007F019C008F01AC009F01BC00AF0BBEC72
:1007700007F007C014F008C015F009C016F00AC051
:1007800017F00C6A0D6AC80E0E6E430E0F6E14C081
:1007900007F015C008F016C009F017C00AF068ECA1
:1007A00007F04EEC08F008C0DEFF09C0DDFFDFCF28
:1007B000E6FF14EC0AF0E5526FD0FB0EDBCF14F02D
:1007C000FC0EDBCF15F0FD0EDBCF16F0FE0EDBCFFF
:1007D00017F0AC0E0C6EC50E0D6E270E0E6E370E9A
:1007E0000F6E14C007F015C008F016C009F017C04E
:1007F0000AF086EC08F0010A4FE1FB0EDBCF18F09F
:10080000FC0EDBCF19F0FD0EDBCF1AF0FE0EDBCFB6
:100810001BF0ABC008F0ACC009F055EC07F007C006
:100820001CF008C01DF009C01EF00AC01FF01CC05B
:100830000CF01DC00DF01EC00EF01FC00FF018C050
:1008400007F019C008F01AC009F01BC00AF0BBEC91
:1008500007F007C014F008C015F009C016F00AC070
:1008600017F00C6A0D6A200E0E6E420E0F6E14C049
:1008700007F015C008F016C009F017C00AF068ECC0
:1008800007F04EEC08F008C0DEFF09C0DDFFDFCF47
:10089000E6FF22EC0AF0E552020EE15C02E2E16AB8
:1008A000E552E16EE552E7CFD9FF1200D9CFE6FF5E
:1008B000E1CFD9FF020EE126809080928094815092
:1008C000010B0001606F8150020B01E0010E616FAE
:1008D0008150040B01E0010E626F8150080B01E0B2
:1008E000010E636F8150100B01E0010E646F8150A7
:1008F000200B01E0010E656F8150400B01E0010EFD
:10090000666F8150800B01E0010E676F80808092DE
:1009100080948150010B686F8150080B01E0010E3B
:100920006B6F8150100B01E0010E6C6F8150200B3A
:1009300001E0010E6D6F8150400B01E0010E6E6F02
:100940008150800B01E0010E6F6F80908082809457
:100950008150010B706F8150080B01E0010E736F25
:100960008150100B01E0010E746F8150200B01E0EB
:10097000010E756F8150400B01E0010E766F8150C2
:10098000800B01E0010E776F80808082809481501F
:10099000010B786F8150080B01E0010E7B6F8150D5
:1009A000100B01E0010E7C6F8150200B01E0010E65
:1009B0007D6F8150400B01E0010E7E6F8150800BF6
:1009C00001E0010E7F6F8090809280848150010B46
:1009D000806F8150080B01E0010E836F8150100B76
:1009E00001E0010E846F8150200B01E0010E856F44
:1009F0008150400B01E0010E866F8150800B01E0B9
:100A0000010E876F8080809280848150010B886FF7
:100A10008150080B01E0010E8B6F8150100B01E03B
:100A2000010E8C6F8150200B01E0010E8D6F815003
:100A3000400B01E0010E8E6F8150800B01E0010E32
:100A40008F6F8090808280848150010B906F8150E5
:100A5000080B01E0010E936F8150100B01E0010EB5
:100A6000946F8150200B01E0010E956F8150400B77
:100A700001E0010E966F8150800B01E0010E976F2F
:100A80008080808280848150010B986F8150080B98
:100A900001E0010E9B6F8150100B01E0010E9C6F75
:100AA0008150200B01E0010E9D6F8150400B01E051
:100AB000010E9E6F8150800B01E0010E9F6F020EB0
:100AC000E15C02E2E16AE552E16EE552E7CFD9FF6F
:100AD000120084B211D0E66AE66A200EE66E410E7C
:100AE000E66E0AEC00F0E552E552E552E55284B2BA
:100AF00003D00001A31FA41F80B615D0E66AE66AE2
:100B0000200EE66E410EE66E0AEC00F0E552E5526C
:100B1000E552E55280B607D00001A56BA66BA7C0D1
:100B2000A9F0A8C0AAF01200D9CFE6FFE1CFD9FF03
:100B3000040EE126FD0EDBCF14F0FE0EDBCF15F028
:100B40000A0E0D6E0E6A14C008F015C009F028ECEC
:100B500008F004C014F005C015F014C0DEFF15C085
:100B6000DDFF0A0E146E156AFD0EDBCF08F0FE0ED7
:100B7000DBCF09F014C00DF015C00EF028EC08F022
:100B8000020E08C0DBFF030E09C0DBFF000EDFCF43
:100B900008F0010EDBCF09F0090E081801E1095039
:100BA0005AE0080E081801E1095050E0070E081835
:100BB00001E1095046E0060E081801E109503CE049
:100BC000050E081801E1095032E0040E081801E191
:100BD000095028E0030E081801E109501EE0020E3A
:100BE000081801E1095014E0010E081801E109504C
:100BF0000AE0085001E1095001E032D0839083926D
:100C0000839483962DD0838083928394839628D077
:100C1000839083828394839623D08380838283947A
:100C200083961ED0839083928384839619D0838089
:100C300083928384839614D0839083828384839663
:100C40000FD083808382838483960AD0839083929B
:100C50008394838605D0838083928394838600D097
:100C6000020EDBCF08F0030EDBCF09F0090E0818E7
:100C700001E109505AE0080E081801E1095050E05E
:100C8000070E081801E1095046E0060E081801E1B8
:100C900009503CE0050E081801E1095032E0040E4D
:100CA000081801E1095028E0030E081801E1095075
:100CB0001EE0020E081801E1095014E0010E0818A8
:100CC00001E109500AE0085001E1095001E032D089
:100CD0008398839A839C839E2DD08388839A839C58
:100CE000839E28D08398838A839C839E23D0838885
:100CF000838A839C839E1ED08398839A838C839E51
:100D000019D08388839A838C839E14D08398838A96
:100D1000838C839E0FD08388838A838C839E0AD0A2
:100D20008398839A839C838E05D08388839A839C3F
:100D3000838E00D0040EE15C02E2E16AE552E16ECE
:100D4000E552E7CFD9FF12000001A951A71902E12E
:100D5000AA51A81903E0010EA56FA66BA551A61113
:100D600001E08480A551A61101E1849012000001E8
:100D7000A351E8B08484E8A084941200D9CFE6FFA0
:100D8000E1CFD9FF040EE126020EDB6A030EDB6A17
:100D9000DE6ADD6ADECF14F0DDCF15F000011550FC
:100DA000A219E8AE02D0A23504D0A151145CA25120
:100DB000155814E2DECFE9FFDDCFEAFF600EE92629
:100DC000000EEA22EF0405E1020EDB2A030E01E326
:100DD000DB2ADF2A010E01E3DB2ADCD7020EDBCFA0
:100DE000A7F0030EDBCFA8F0010EA31901E1A45177
:100DF00006E1020EDBCFA9F0030EDBCFAAF0020E54
:100E0000DBCF14F0030EDBCF15F014C0F3FF15C0D9
:100E1000F4FF040EE15C03E200D0E16AE552E16E0A
:100E2000E552E7CFD9FF1200806A816A826A836A3D
:100E3000846A896A8A6A8B6A8C6A8D6A080E926EE5
:100E40009368946A956A020E966E0F0EC16E80804A
:100E5000E66AE66AFA0EE66E430EE66E0AEC00F00B
:100E6000E552E552E552E5528090E66AE66AFA0EEE
:100E7000E66E430EE66E0AEC00F0E552E552E552EE
:100E8000E55227DE13DD7ADFF3CF14F0F4CF15F04F
:100E900014C0E6FF15C0E6FF47DEE552E55267DF06
:060EA00053DFD5D712005C
:0A0EA600019E08D0019E09AE05D0A0
:100EB000086C091EE86A0922018E09C003F008C007
:100EC00002F0136A126A8E0E046E056A00EF09F0D2
:100ED000016A3CEC09F054EC09F001B6E4EF08F0CB
:100EE00001A205D001BAE4EF08F0EBEF08F001BA77
:100EF000F7EF08F001A005D001B8E4EF08F0F7EF34
:100F000008F001B8EBEF08F0056A7F0E0A24046EC2
:100F1000E86A05220F50045EE86A055A1A0E106E40
:100F20000A6A126A136A026A036A0C50075E0D505D
:100F3000085A0E50095A000E0A5A09E70C500726A3
:100F40000D5008220E500922000E0A2201D0128AEA
:100F5000D8900736083609360A36D8901236133636
:100F600002360336102EE1D7095008100710D8A416
:100F7000128A00EF09F0016A3CEC09F054EC09F028
:100F800001B6E4EF08F001A205D001B8E4EF08F0E3
:100F9000EBEF08F001AA05D001B0E4EF08F0EBEFA9
:100FA00008F001B002D001A802D0F7EF08F0056AFE
:100FB0000F500A24046EE86A05227E0E045EE86A79
:100FC000055A126A136A026A036A0E500902F4CFC4
:100FD00003F0F3CF02F00D500902F3501326F45042
:100FE0000222000E03220E500802F3501326F45082
:100FF0000222000E03220C500902F3501226F45074
:101000001322000E022203220D500802F350122672
:10101000F4501322000E022203220E500702F35056
:101020001226F4501322000E022203220C50080252
:10103000F4501226000E1322022203220D50070242
:10104000F4501226000E13220222032200EF09F0B0
:10105000006A0EAE31EF08F00D6C0E1EE86A0E222B
:10106000001E09AE39EF08F0086C091EE86A092273
:10107000001ED0EC09F009BE49EF08F000AE000CEC
:10108000086C091EE86A0922046C051EE86A05223C
:10109000000C00BE40EF08F00188FF0C016A3CEC38
:1010A00009F001B658EF08F001A20ED001B405D046
:1010B0007F0E096EFF0E086E1FD0800E096E086A43
:1010C0001BD0096A086A18D001B0FBD78F0E0A60DE
:1010D000EDD77E0E0A64F5D78E0E0A5C05E0D89037
:1010E000093208320A2AF8D701A406D0086C091E72
:1010F000E86A092209AEE5D712008FEC08F001B6C4
:10110000000C01B0000C01B4000C010C8FEC08F0D5
:1011100001B6000C01B0000C01A4000C010C016A26
:101120003CEC09F054EC09F001B6120001AE08D015
:1011300001A004D001A802D0018012000190120089
:101140000F500A5C0BE10E50095C08E10D50085C81
:1011500005E10C50075C02E101801200D8A002D02A
:10116000018E10D00A500FC00AF00F6E09500EC049
:1011700009F00E6E08500DC008F00D6E07500CC03F
:1011800007F00C6E0F500A5C10E0FF0F09E00190B1
:1011900001B403D001AE0184120001AE019412002B
:1011A0000F2AD8900E320D320C320C50075E0D50C3
:1011B000085A0E50095A09BEEAD7D89007360836A1
:1011C00009360A2EF8D7C8D77F0E0A6EFF0E096EB1
:1011D000086E076E12007F0E01BEFF0E0A6E02D06F
:1011E0007F0E0A6E800E096E086A076AF3D701AE99
:1011F00004D0800E0A6E096AF7D70A6A096AF4D722
:101200000350021013101210F8E005BEF0D703BE11
:101210000CD004500510EBE0D8901236133602368D
:1012200003360406D8A00506F2D70550D4E10428F9
:10123000D2E012AE11D07F0E121402E113A00CD036
:10124000132AE86A0222032207E3D880033202321B
:101250001332042A0428BFE00450C9E013C007F089
:1012600002C008F00334096E04300A6E09320A9E87
:1012700001BE0A8EEAEF08F009360A3602E301845D
:10128000017E06E101800A6A096A086A076A12009B
:101290000A2803E0D88009321200D890093202E10E
:1012A00001821200018612000E360F3602E3018C15
:1012B000017E06E101880F6A0E6A0D6A0C6A12004F
:1012C0000F2803E0D8800E321200D8900E32EAE1E7
:0412D000018A12007D
:0C12D400060EF66E000EF76E000EF86EAF
:1012E00000010900F550B26F0900F550B36F03E13A
:1012F000B26701D03DD00900F550AD6F0900F5503F
:10130000AE6F0900F550AF6F09000900F550E96EA6
:101310000900F550EA6E090009000900F550B06FA8
:101320000900F550B16F09000900F6CFB4F0F7CF0E
:10133000B5F0F8CFB6F0ADC0F6FFAEC0F7FFAFC066
:10134000F8FF0001B05302E1B15307E00900F55086
:10135000EE6EB007F8E2B107F9D7B4C0F6FFB5C03A
:10136000F7FFB6C0F8FF0001B207000EB35BBFD7AE
:02137000120069
:0E137200FF0EE350216EEF0E01D0F30EE76E7A
:10138000E72EC0EF09F00C0E206EE76AE72EC6EFDD
:1013900009F0202EC5EF09F0212EBEEF09F0120052
:1013A000056A046A100EE76ED890083609360436CE
:1013B00005360D50045C0E50055805E30D50045ED3
:0C13C0000E50055A082AE72EF0D7120044
:0413CC00FF0EE350DD
:1013D000216E480E01D04C0EE76EE72EFED7E76A6D
:0C13E000E72EFED7212EF7D700001200E8
:0413EC00000EF36E8E
:1013F00000EE00F0080E01D81200EA6002D0EE6A9A
:0C140000FCD7F350E9601200EE6AFCD744
:04140C0013EE00F0EB
:1014100023EE00F0F86A019C6AEC09F02DEC0AF06A
:0814200014EC07F0FBD71200E9
:08142800FF0EE350216E1B0EC4
:1014300000D001D0200EE76EE72EFED7212EFAD77E
:0414400000D01200C6
:0C144400FF0EE350E84E1200000000D044
:0A14500000D000D0E82EFAD71200F9
:02145A0012007E
:04145C00400001004B
:08146000000000000000002D57
:020000040030CA
:0100000024DB
:010001000EF0
:0100020038C5
:010003001EDE
:010005008179
:010006008178
:00000001FF
