:020000040000FA
:060000004BEF12F01200AC
:0A0006000100F22400006000000079
:040010003A000000B2
:0C001400D9CFE6FFE1CFD9FF00000000CB
:10002000000000000000FD0EDB06FE0E01E2DB0614
:10003000D950FD0FE96EFF0EDA20EA6E000ED8806F
:10004000EE54000EED54EAE3E552E7CFD9FF12007B
:10005000D9CFE6FFE1CFD9FFE652DF6A93949398B8
:10006000939A939C949E929AFE0EDB50E8B0808AFD
:10007000E8A0809AD950FC0FE96EFF0EDA20EA6EF4
:10008000EE50ED1061E1FB0EDB44010BE8B0818E18
:10009000E8A0819E060E146EFB0EDB5014C0E7FF35
:1000A000E75204E0E8427F0BE706FCE1E8B0818C10
:1000B000E8A0819CFB0EDB50E00BE838E840E8B09C
:1000C000818AE8A0819AFB0EDB380F0BE8B08188AB
:1000D000E8A08198828E020EE66EE66A9BDFE5520A
:1000E000E552829EFB0EDB40E840E8401F0BE8B083
:1000F000818EE8A0819EFB0EDB40E8403F0BE8B01C
:10010000818CE8A0819CFB0EDB407F0BE8B0818AEC
:10011000E8A0819AFB0EDB50E8B08188E8A08198C6
:10012000828E020EE66EE66A75DFE552E552829E29
:10013000F90EDBCFE6FFFA0EDBCFE6FF6BDFE55211
:10014000E552000E64D063D093849388938A938C95
:10015000828E020EE66EE66A5DDFE552E552815060
:10016000800B01E0010EDF6E8150400B01E0010EBB
:10017000146EDF50E8241410DF6E8150200B01E074
:10018000010E146EDF50E8241410DF6E8150100B46
:1001900001E0010E146EDF50E8241410DF6E829E21
:1001A000828E020EE66EE66A35DFE552E552815038
:1001B000800B01E0010E146EDF50E8241410DF6E96
:1001C0008150400B01E0010E146EDF50E824141042
:1001D000DF6E8150200B01E0010E146EDF50E82429
:1001E0001410DF6E8150100B01E0010E146EDF5011
:1001F000E8241410DF6E829EF90EDBCFE6FFFA0EC4
:10020000DBCFE6FF07DFE552E552DF5000D0E552D5
:10021000E552E7CFD9FF1200D00EE66E070EE66E6C
:10022000010EE66E000EE66EE66AE66A11DF146EF7
:10023000060EE15E14501200D00EE66E070EE66E5A
:10024000020EE66E000EE66EE66AE66A01DF146EE6
:10025000060EE15E14501200D9CFE6FFE1CFD9FFC0
:10026000020EE126140EDF6EDE52100EDD6E280E39
:10027000E66EE66AD9CF14F0DACF15F0FE0EDB5049
:100280000F011424E96E000E1520EA6EEF50E66EA1
:10029000000EE66EE66AE66ADBDE166E060EE15ECC
:1002A0001650020EE15C02E2E16AE552E16EE552AF
:1002B000E7CFD9FF1200D9CFE6FFE1CFD9FF020E79
:1002C000E1261C0EDF6EDE52180EDD6E280EE66E85
:1002D000E66AD9CF14F0DACF15F0FE0EDB500F012D
:1002E0001424E96E000E1520EA6EEF50E66E000E43
:1002F000E66EE66AE66AACDE166E060EE15E165043
:10030000020EE15C02E2E16AE552E16EE552E7CFFE
:10031000D9FF1200D9CFE6FFE1CFD9FF050EE126C4
:100320000C0EDF6EDE52080EDD6E0F0EF36E020E47
:10033000F3CFDBFF0E0EF36E030EF3CFDBFF0D0EDC
:10034000F36E040EF3CFDBFF280EE66EE66AD9CF1C
:1003500014F0DACF15F0FE0EDB500F011424E96E15
:10036000000E1520EA6EEF50E66E000EE66EE66AAD
:10037000E66A6EDE166E060EE15E1650050EE15C54
:1003800002E2E16AE552E16EE552E7CFD9FF1200E1
:10039000D9CFE6FFE1CFD9FFFE0EDB50040A3DE0E6
:1003A000070A29E0010A15E0030A01E048D0280EF7
:1003B000E66EE66AFD0EDB50800FFF0FE66E000E64
:1003C000E66EE66AE66A44DE146E060EE15E1450DE
:1003D00036D0280EE66EE66AFD0EDB50C00FFF0F2A
:1003E000E66E000EE66EE66AE66A32DE146E060E11
:1003F000E15E145024D0280EE66EE66AFD0EDB5056
:10040000940FFF0FE66E000EE66EE66AE66A20DEE7
:10041000146E060EE15E145012D0280EE66EE66AE7
:10042000FD0EDB50D40FFF0FE66E000EE66EE66A9F
:10043000E66A0EDE146E060EE15E145000D0E55240
:10044000E7CFD9FF1200D9CFE6FFE1CFD9FF2D0EBC
:10045000E66EE66AFE0EDBCFE6FF000EE66EE66AAB
:10046000010EE66EF5DD146E060EE15E1450E552E7
:10047000E7CFD9FF12002D0EE66EE66AE66A010E9E
:10048000E66EE66AE66EE4DD146E060EE15E14507A
:1004900000D01200280EE66EE66AE66A010EE66EED
:1004A000E66AE66AD5DD146E060EE15E145000D0F1
:1004B0001200D9CFE6FFE1CFD9FFFD0EDBCFF6FF6B
:1004C000FE0EDBCFF7FF0800F55011E0FD0EDBCF8D
:1004D000F6FFFE0EDBCFF7FF0800F550E66EB3DF48
:1004E000E552FD0EDB2AFE0E01E3DB2AE6D7E552DC
:1004F000E7CFD9FF1200D9CFE6FFE1CFD9FFFC0E3D
:10050000DBCFF3FFDB06F350000910E0FD0EDBCF7D
:10051000E9FFFE0EDBCFEAFFEF50E66E94DFE55217
:10052000FD0EDB2AFE0E01E3DB2AE9D7E552E7CF19
:10053000D9FF1200D9CFE6FFE1CFD9FF070EE126A0
:10054000030EDF6EDE52020EDD6EDB6A030EDB6A27
:10055000040EDB6A050EDB6AFE0EDB50E76E020E50
:10056000E7CFDBFFFD0EDB50E76E030EE7CFDBFFCF
:10057000FC0EDB50E76E040EE7CFDBFF93949398FD
:10058000939A939C949E929A809A829E200EE66EF5
:100590004E0EE66E3FDDE552E552060EDB6A030EB7
:1005A000F36E060EDBCFF4FFF350F45C2EE2DF5067
:1005B000E840E840E8401F0BE8B0818EE8A0819E4B
:1005C000DF50E840E8403F0BE8B0818CE8A0819C18
:1005D000DF407F0BE8B0818AE8A0819ADF50E8B065
:1005E0008188E8A08198828E020EE66EE66A12DDAE
:1005F000E552E552829E880EE66E130EE66E0ADD27
:10060000E552E552060EDB2ACAD7010EDB40E84070
:10061000E8401F0BE8B0818EE8A0819E010EDB4010
:10062000E8403F0BE8B0818CE8A0819C010EDB40E4
:100630007F0BE8B0818AE8A0819A010EDB50E8B018
:100640008188E8A08198828E020EE66EE66AE2DC7E
:10065000E552E552829E280EE66EE66ADBDCE55244
:10066000E552280EE66EE66A020EDBCFE6FF000ECC
:10067000E66EE66AE66AECDC146E060EE15E145085
:10068000280EE66EE66A030EDBCFE6FF000EE66E8E
:10069000E66AE66ADDDC146E060EE15E1450280E92
:1006A000E66EE66A040EDBCFE6FF000EE66EE66A53
:1006B000E66ACEDC146E060EE15E1450ADDD070E68
:1006C000E15C02E2E16AE552E16EE552E7CFD9FF73
:1006D0001200D9CFE6FFE1CFD9FF020EE126DE6A94
:1006E000DD6AFB0EDBCF14F0FC0EDBCF15F0FD0E48
:1006F000DBCF16F0FE0EDBCF17F00C6A0D6A7A0E18
:100700000E6E440E0F6E14C007F015C008F016C030
:1007100009F017C00AF04BEC0FF0FB0E07C0DBFF2F
:10072000FC0E08C0DBFFFD0E09C0DBFFFE0E0AC099
:10073000DBFFFB0EDBCF14F0FC0EDBCF15F0FD0E64
:10074000DBCF16F0FE0EDBCF17F00C6A0D6A0E6AD7
:100750000F6A14C007F015C008F016C009F017C0E2
:100760000AF0CBEC10F0010A02E1000E01D0010EFC
:10077000010E000950E0FB0EDBCF18F0FC0EDBCFC2
:1007800019F0FD0EDBCF1AF0FE0EDBCF1BF07CC0A4
:1007900008F07DC009F0E5EC0EF007C01CF008C0C1
:1007A0001DF009C01EF00AC01FF01CC00CF01DC0D7
:1007B0000DF01EC00EF01FC00FF018C007F019C0DA
:1007C00008F01AC009F01BC00AF04BEC0FF007C08C
:1007D00014F008C015F009C016F00AC017F00C6A32
:1007E0000D6A200E0E6E420E0F6E14C007F015C07B
:1007F00008F016C009F017C00AF0F8EC0EF093EC00
:1008000010F008C0DEFF09C0DDFFDFCFE6FFFEEC21
:1008100011F0E55294D1FB0EDBCF14F0FC0EDBCFD0
:1008200015F0FD0EDBCF16F0FE0EDBCF17F00C6AD5
:100830000D6A0E6A0F6A14C007F015C008F016C0E2
:1008400009F017C00AF0C2EC10F0010A02E1000E34
:1008500001D0010EFB0EDBCF18F0FC0EDBCF19F040
:10086000FD0EDBCF1AF0FE0EDBCF1BF00C6A0D6A1B
:100870000E6A0F6A18C007F019C008F01AC009F014
:100880001BC00AF0C2EC10F0010A02E0000E01D019
:10089000010E010E000950E0FB0EDBCF18F0FC0E3C
:1008A000DBCF19F0FD0EDBCF1AF0FE0EDBCF1BF015
:1008B0007CC008F07DC009F0E5EC0EF007C01CF02C
:1008C00008C01DF009C01EF00AC01FF01CC00CF0CB
:1008D0001DC00DF01EC00EF01FC00FF018C007F0B5
:1008E00019C008F01AC009F01BC00AF04BEC0FF059
:1008F00007C014F008C015F009C016F00AC017F0C0
:100900000C6A0D6AC80E0E6E430E0F6E14C007F00F
:1009100015C008F016C009F017C00AF0F8EC0EF088
:1009200093EC10F008C0DEFF09C0DDFFDFCFE6FF6B
:100930002BEC12F0E55203D1FB0EDBCF14F0FC0ED2
:10094000DBCF15F0FD0EDBCF16F0FE0EDBCF17F080
:100950000C6A0D6A0E6A0F6A14C007F015C008F021
:1009600016C009F017C00AF0C2EC10F0010A02E14B
:10097000000E01D0010EFB0EDBCF18F0FC0EDBCF1A
:1009800019F0FD0EDBCF1AF0FE0EDBCF1BF00C6A68
:100990000D6A0E6A0F6A18C007F019C008F01AC075
:1009A00009F01BC00AF0CBEC10F0010A02E0000EC7
:1009B00001D0010E010E000950E0FB0EDBCF18F054
:1009C000FC0EDBCF19F0FD0EDBCF1AF0FE0EDBCFF5
:1009D0001BF07CC008F07DC009F0E5EC0EF007C00C
:1009E0001CF008C01DF009C01EF00AC01FF01CC09A
:1009F0000CF01DC00DF01EC00EF01FC00FF018C08F
:100A000007F019C008F01AC009F01BC00AF04BEC3F
:100A10000FF007C014F008C015F009C016F00AC0A6
:100A200017F00C6A0D6A7A0E0E6E450E0F6E14C02A
:100A300007F015C008F016C009F017C00AF0F8EC6E
:100A40000EF093EC10F008C0DEFF09C0DDFFDFCF31
:100A5000E6FF59EC12F0E55272D0FB0EDBCF14F03A
:100A6000FC0EDBCF15F0FD0EDBCF16F0FE0EDBCF5C
:100A700017F00C6A0D6A0E6A0F6A14C007F015C0F1
:100A800008F016C009F017C00AF0C2EC10F0010A15
:100A900002E0000E01D0010E010E000950E0FB0E35
:100AA000DBCF18F0FC0EDBCF19F0FD0EDBCF1AF018
:100AB000FE0EDBCF1BF07CC008F07DC009F0E5EC3A
:100AC0000EF007C01CF008C01DF009C01EF00AC0DF
:100AD0001FF01CC00CF01DC00DF01EC00EF01FC09A
:100AE0000FF018C007F019C008F01AC009F01BC0B9
:100AF0000AF04BEC0FF007C014F008C015F009C065
:100B000016F00AC017F00C6A400E0D6E1C0E0E6E29
:100B1000470E0F6E14C007F015C008F016C009F09C
:100B200017C00AF0F8EC0EF093EC10F008C0DEFFEE
:100B300009C0DDFFDFCFE6FF67EC12F0E552020EE1
:100B4000E15C02E2E16AE552E16EE552E7CFD9FFEE
:100B50001200D9CFE6FFE1CFD9FF020EE126DE6A0F
:100B6000DD6AFB0EDBCF14F0FC0EDBCF15F0FD0EC3
:100B7000DBCF16F0FE0EDBCF17F00C6A0D6A0E6AA3
:100B80000F6A14C007F015C008F016C009F017C0AE
:100B90000AF0CBEC10F0010A02E1000E01D0010EC8
:100BA000010E000950E0FB0EDBCF18F0FC0EDBCF8E
:100BB00019F0FD0EDBCF1AF0FE0EDBCF1BF07CC070
:100BC00008F07DC009F0E5EC0EF007C01CF008C08D
:100BD0001DF009C01EF00AC01FF01CC00CF01DC0A3
:100BE0000DF01EC00EF01FC00FF018C007F019C0A6
:100BF00008F01AC009F01BC00AF04BEC0FF007C058
:100C000014F008C015F009C016F00AC017F00C6AFD
:100C10000D6A200E0E6E420E0F6E14C007F015C046
:100C200008F016C009F017C00AF0F8EC0EF093ECCB
:100C300010F008C0DEFF09C0DDFFDFCFE6FFFEECED
:100C400011F0E55294D1FB0EDBCF14F0FC0EDBCF9C
:100C500015F0FD0EDBCF16F0FE0EDBCF17F00C6AA1
:100C60000D6A0E6A0F6A14C007F015C008F016C0AE
:100C700009F017C00AF0C2EC10F0010A02E1000E00
:100C800001D0010EFB0EDBCF18F0FC0EDBCF19F00C
:100C9000FD0EDBCF1AF0FE0EDBCF1BF00C6A0D6AE7
:100CA0000E6A0F6A18C007F019C008F01AC009F0E0
:100CB0001BC00AF0C2EC10F0010A02E0000E01D0E5
:100CC000010E010E000950E0FB0EDBCF18F0FC0E08
:100CD000DBCF19F0FD0EDBCF1AF0FE0EDBCF1BF0E1
:100CE0007CC008F07DC009F0E5EC0EF007C01CF0F8
:100CF00008C01DF009C01EF00AC01FF01CC00CF097
:100D00001DC00DF01EC00EF01FC00FF018C007F080
:100D100019C008F01AC009F01BC00AF04BEC0FF024
:100D200007C014F008C015F009C016F00AC017F08B
:100D30000C6A0D6AC80E0E6E430E0F6E14C007F0DB
:100D400015C008F016C009F017C00AF0F8EC0EF054
:100D500093EC10F008C0DEFF09C0DDFFDFCFE6FF37
:100D60002BEC12F0E55203D1FB0EDBCF14F0FC0E9E
:100D7000DBCF15F0FD0EDBCF16F0FE0EDBCF17F04C
:100D80000C6A0D6A0E6A0F6A14C007F015C008F0ED
:100D900016C009F017C00AF0C2EC10F0010A02E117
:100DA000000E01D0010EFB0EDBCF18F0FC0EDBCFE6
:100DB00019F0FD0EDBCF1AF0FE0EDBCF1BF00C6A34
:100DC0000D6A0E6A0F6A18C007F019C008F01AC041
:100DD00009F01BC00AF0CBEC10F0010A02E0000E93
:100DE00001D0010E010E000950E0FB0EDBCF18F020
:100DF000FC0EDBCF19F0FD0EDBCF1AF0FE0EDBCFC1
:100E00001BF07CC008F07DC009F0E5EC0EF007C0D7
:100E10001CF008C01DF009C01EF00AC01FF01CC065
:100E20000CF01DC00DF01EC00EF01FC00FF018C05A
:100E300007F019C008F01AC009F01BC00AF04BEC0B
:100E40000FF007C014F008C015F009C016F00AC072
:100E500017F00C6A0D6A7A0E0E6E450E0F6E14C0F6
:100E600007F015C008F016C009F017C00AF0F8EC3A
:100E70000EF093EC10F008C0DEFF09C0DDFFDFCFFD
:100E8000E6FF59EC12F0E55272D0FB0EDBCF14F006
:100E9000FC0EDBCF15F0FD0EDBCF16F0FE0EDBCF28
:100EA00017F00C6A0D6A0E6A0F6A14C007F015C0BD
:100EB00008F016C009F017C00AF0C2EC10F0010AE1
:100EC00002E0000E01D0010E010E000950E0FB0E01
:100ED000DBCF18F0FC0EDBCF19F0FD0EDBCF1AF0E4
:100EE000FE0EDBCF1BF07CC008F07DC009F0E5EC06
:100EF0000EF007C01CF008C01DF009C01EF00AC0AB
:100F00001FF01CC00CF01DC00DF01EC00EF01FC065
:100F10000FF018C007F019C008F01AC009F01BC084
:100F20000AF04BEC0FF007C014F008C015F009C030
:100F300016F00AC017F00C6A400E0D6E1C0E0E6EF5
:100F4000470E0F6E14C007F015C008F016C009F068
:100F500017C00AF0F8EC0EF093EC10F008C0DEFFBA
:100F600009C0DDFFDFCFE6FF67EC12F0E552020EAD
:100F7000E15C02E2E16AE552E16EE552E7CFD9FFBA
:100F80001200010E00017E6F7F6B8051811171E0B4
:100F9000806B816B146A156A7A0E166E440E176E9A
:100FA00084C00CF085C00DF086C00EF087C00FF035
:100FB00014C007F015C008F016C009F017C00AF0F9
:100FC000F8EC0EF007C088F008C089F009C08AF07C
:100FD0000AC08BF0640E0D6E0E6A94C008F095C0C6
:100FE00009F04FEC10F008C094F009C095F094C0DF
:100FF00008F095C009F0E5EC0EF007C014F008C049
:1010000015F009C016F00AC017F014C00CF015C096
:101010000DF016C00EF017C00FF088C007F089C0A1
:1010200008F08AC009F08BC00AF04BEC0FF007C043
:101030008CF008C08DF009C08EF00AC08FF08CC013
:101040000CF08DC00DF08EC00EF08FC00FF088C078
:1010500007F089C008F08AC009F08BC00AF0B8EC2C
:101060000FF007C090F008C091F009C092F00AC0DC
:1010700093F082808CC0E6FF8DC0E6FF8EC0E6FF55
:101080008FC0E6FF69EC03F0E552E552E552E55208
:10109000828090C0E6FF91C0E6FF92C0E6FF93C059
:1010A000E6FF69EC03F0E552E552E552E552120025
:1010B000806A816A826A896A8A6A8B6A1F0E926E66
:1010C0000F0E936E300E946EE66AE66A400EE66E80
:1010D000E66E3FDDE552E552E552E5521200D9CF0A
:1010E000E6FFE1CFD9FF020EE126DE6ADD6A0001EC
:1010F0006C6B6D6B6E6B6F6B706B716B726B736B1C
:10110000746B756B766B776B786B796B7A6B7B6BCB
:1011100080A007D0010EDE26000EDD22010E6C6FCE
:101120006D6B80A207D0020EDE26000EDD22010EBE
:101130006E6F6F6B80A407D0040EDE26000EDD22DA
:10114000010E706F716B80A607D0080EDE26000EB0
:10115000DD22010E726F736BDECF14F0DDCF15F060
:1011600014C0F3FF15C0F4FF020EE15C03E200D0EF
:10117000E16AE552E16EE552E7CFD9FF1200D9CF1F
:10118000E6FFE1CFD9FF80A00ED0D950FD0FE96E68
:10119000FF0EDA20EA6E100EEE26000EED22010E92
:1011A0000001746F756B80A20ED0D950FD0FE96EEF
:1011B000FF0EDA20EA6E200EEE26000EED22010E62
:1011C0000001766F776B80A40ED0D950FD0FE96EC9
:1011D000FF0EDA20EA6E400EEE26000EED22010E22
:1011E0000001786F796B8050080B01E0010E00015F
:1011F0007A6F7B6BFD0EDBCF14F0FE0EDBCF15F0AC
:1012000014C0F3FF15C0F4FF00D0E552E7CFD9FFBB
:10121000120081B012D0E66AE66AFA0EE66E430E5C
:10122000E66E69EC03F0E552E552E552E55281B015
:1012300004D0010E0001666F676B81B211D0E66ABF
:10124000E66AFA0EE66E430EE66E69EC03F0E552CE
:10125000E552E552E55281B203D00001666B676B3F
:1012600081B41AD0E66AE66AFA0EE66E430EE66EBE
:1012700069EC03F0E552E552E552E55281B40CD039
:1012800000016A2B000E6B236A51645D6B51655936
:1012900003E2010E6A6F6B6B81B61BD0E66AE66AE9
:1012A000FA0EE66E430EE66E69EC03F0E552E55287
:1012B000E552E55281B60DD000016A07000E6B5B66
:1012C000010E6A5D000E6B5904E264C06AF065C0ED
:1012D0006BF082B868D0E66AE66AFA0EE66E430EF4
:1012E000E66E69EC03F0E552E552E552E55282B84C
:1012F0005AD0828C0A0EE66ED70EE66E230EE66E8C
:101300003C0EE66E69EC03F0E552E552E552E5521B
:10131000829C0A0EE66ED70EE66E230EE66E3C0E3B
:10132000E66E69EC03F0E552E552E552E552828C37
:101330000A0EE66ED70EE66E230EE66E3C0EE66EE5
:1013400069EC03F0E552E552E552E552829C0A0E43
:10135000E66ED70EE66E230EE66E3C0EE66E69EC88
:1013600003F0E552E552E552E552828C0A0EE66E34
:10137000D70EE66E230EE66E3C0EE66E69EC03F0C9
:10138000E552E552E552E552829C0A0EE66ED70E12
:10139000E66E230EE66E3C0EE66E69EC03F0E55257
:1013A000E552E552E55282BA86D0E66AE66AFA0E5E
:1013B000E66E430EE66E69EC03F0E552E552E55247
:1013C000E55282BA78D0828C0A0EE66ED70EE66EAF
:1013D000230EE66E3C0EE66E69EC03F0E552E55234
:1013E000E552E552829C0A0EE66ED70EE66E230E9B
:1013F000E66E3C0EE66E69EC03F0E552E552E5520E
:10140000E552828C0A0EE66ED70EE66E230EE66E6D
:101410003C0EE66E69EC03F0E552E552E552E5520A
:10142000829C0A0EE66ED70EE66E230EE66E3C0E2A
:10143000E66E69EC03F0E552E552E552E552828C26
:101440000A0EE66ED70EE66E230EE66E3C0EE66ED4
:1014500069EC03F0E552E552E552E552829C0A0E32
:10146000E66ED70EE66E230EE66E3C0EE66E69EC77
:1014700003F0E552E552E552E552828C0A0EE66E23
:10148000D70EE66E230EE66E3C0EE66E69EC03F0B8
:10149000E552E552E552E552829C0A0EE66ED70E01
:1014A000E66E230EE66E3C0EE66E69EC03F0E55246
:1014B000E552E552E5521200D9CFE6FFE1CFD9FF60
:1014C000060EE126040EDB6A050EDB6A0CEC01F069
:1014D00000016651671101E12ED1DE6ADD6ADFCFBE
:1014E00014F0DF2A010EDBCF15F001E3DB2A1450E4
:1014F000151001E11FD1DECF14F0DDCF15F06AC069
:1015000016F06BC017F01606000E175A16C008F03A
:1015100017C009F062C00DF063C00EF075EC10F05A
:1015200014500624E96E15500720EA6E010ED8907B
:10153000E936EA36E806FBE1AA0EE926000EEA22C1
:10154000EE50ED1001E1E2D0040EDBCF18F0050EF5
:10155000DBCF19F0000119506319E8AE02D06335F2
:1015600004D06251185C6351195801E3CFD0040EC6
:10157000DB2A050E01E3DB2AD950040FE96EDACF2E
:10158000EAFFEE50ED105CE1010EE66EE66EC8EC8F
:1015900001F0E552E552020EDB6A030EDB6A020E31
:1015A000DBCF14F0DB2A030EDBCF15F001E3DB2ADF
:1015B0001450151044E0DECF16F0DDCF17F06AC0EE
:1015C00018F06BC019F01806000E195A18C008F070
:1015D00019C009F062C00DF063C00EF075EC10F098
:1015E00016500624146E17500720156E040ED8905E
:1015F00014361536E806FBE19A0E1426000E152265
:10160000020EDB501424E96E030EDB501520EA6E47
:10161000EF50E66E23EC02F0E552020EDBCF14F041
:10162000030EDBCF15F0D890155004E6100E145CB5
:10163000000E155802E3000E01D0010EB0D766D09F
:10164000D950040FE96EDACFEAFF010EEE1801E17E
:10165000ED505CE1010EE66E020EE66EC8EC01F0A4
:10166000E552E552020EDB6A030EDB6A020EDBCFA7
:1016700014F0DB2A030EDBCF15F001E3DB2A145054
:10168000151044E0DECF16F0DDCF17F06AC018F079
:101690006BC019F01806000E195A18C008F019C0CE
:1016A00009F062C00DF063C00EF075EC10F016503A
:1016B0000624146E17500720156E040ED8901436A9
:1016C0001536E806FBE19A0E1426000E1522020ECE
:1016D000DB501424E96E030EDB501520EA6EEF5048
:1016E000E66E23EC02F0E552020EDBCF14F0030E9F
:1016F000DBCF15F0D890155004E6100E145C000EE8
:10170000155802E3000E01D0010EB0D7DECF14F061
:10171000DDCF15F0000115506119E8AE02D061353A
:1017200004D06051145C6151155802E3000E01D0E1
:10173000010ED5D62DD1DE6ADD6ADFCF14F0DF2AA7
:10174000010EDBCF15F001E3DB2A1450151001E187
:101750001FD1DECF14F0DDCF15F06AC016F06BC0DC
:1017600017F01606000E175A16C008F017C009F039
:1017700062C00DF063C00EF075EC10F0145006243A
:10178000E96E15500720EA6E010ED890E936EA3668
:10179000E806FBE1AA0EE926000EEA22EE50ED1063
:1017A00001E0E2D0040EDBCF18F0050EDBCF19F01C
:1017B000000119506319E8AE02D0633504D06251BC
:1017C000185C6351195801E3CFD0040EDB2A050ED3
:1017D00001E3DB2AD950040FE96EDACFEAFFEE50BD
:1017E000ED105CE1010EE66EE66EC8EC01F0E5522C
:1017F000E552020EDB6A030EDB6A020EDBCF14F049
:10180000DB2A030EDBCF15F001E3DB2A14501510A1
:1018100044E0DECF16F0DDCF17F06AC018F06BC0E1
:1018200019F01806000E195A18C008F019C009F06E
:1018300062C00DF063C00EF075EC10F01650062477
:10184000146E17500720156E040ED89014361536F6
:10185000E806FBE19A0E1426000E1522020EDB505C
:101860001424E96E030EDB501520EA6EEF50E66E8D
:1018700023EC02F0E552020EDBCF14F0030EDBCFB7
:1018800015F0D890155004E6100E145C000E155893
:1018900002E3000E01D0010EB0D766D0D950040F7C
:1018A000E96EDACFEAFF010EEE1801E1ED505CE1DE
:1018B000010EE66E020EE66EC8EC01F0E552E5524E
:1018C000020EDB6A030EDB6A020EDBCF14F0DB2AAA
:1018D000030EDBCF15F001E3DB2A1450151044E0B2
:1018E000DECF16F0DDCF17F06AC018F06BC019F02C
:1018F0001806000E195A18C008F019C009F062C085
:101900000DF063C00EF075EC10F016500624146E46
:1019100017500720156E040ED89014361536E806B9
:10192000FBE19A0E1426000E1522020EDB50142441
:10193000E96E030EDB501520EA6EEF50E66E23ECE5
:1019400002F0E552020EDBCF14F0030EDBCF15F0F0
:10195000D890155004E6100E145C000E155802E3E2
:10196000000E01D0010EB0D7DECF14F0DDCF15F0A0
:10197000000115506119E8AE02D0613504D0605104
:10198000145C6151155802E3000E01D0010ED5D64A
:10199000060EE15C02E2E16AE552E16EE552E7CF54
:1019A000D9FF120000016851691113E082518311BF
:1019B0000CE1010E806F816B846B856BFA0E866F74
:1019C000430E876F010E826F836B010E7E6F7F6BFC
:1019D00002D07E6B7F6B120000016651E8B08284FA
:1019E000E8A082948250040B02E0829201D08282AD
:1019F00012008088060EE66E0F0EE66E280EE66E6A
:101A00009AEC02F0E552E552E552E66A8AEC01F002
:101A1000E5520CEC01F0010EE66EE66EC8EC01F04A
:101A2000E552E552E40EE66E240EE66E59EC02F045
:101A3000E552E55258EF08F0D9CFE6FFE1CFD9FFE4
:101A4000120EE126DE6ADD6A020EDB6A030EDB6A35
:101A5000060EDB6A070EDB6A080EDB68090EDB6820
:101A60000A0EDB6A0B0EDB6A0C0EDB6A0D0EDB6AFC
:101A70000E0EDB6A0F0EDB6A8050100B12E0D9CF1E
:101A8000E9FFDACFEAFFEE50ED100BE1010EDE6E5A
:101A9000DD6A6FEC08F0040EF3CFDBFF050EF4CF28
:101AA000DBFF8050100B20E0D9CFE9FFDACFEAFF4F
:101AB000EE50ED1019E0DE6ADD6A010EF36E020EE3
:101AC000F3CFDBFF030EDB6A040EDBCFE6FF050E70
:101AD000DBCFE6FFBFEC08F0E552E552040EF3CF92
:101AE000DBFF050EF4CFDBFFD950020FE96EDACF32
:101AF000EAFFEE50ED1001E150D1020EDB6A030E59
:101B0000DB6AD950040FE96EDACFEAFFEE50ED1030
:101B100001E12DD1D950060FE96EDACFEAFFEE5080
:101B2000ED101AE1D9500C0FE96EDACFEAFF010E81
:101B3000EE1801E1ED5010E1D950040FE96EDACF53
:101B4000EAFFEE50ED1004E10001686B696B04D010
:101B5000010E0001686F696BD950060FE96EDACF8C
:101B6000EAFF010EEE1801E1ED5075E1D9500C0FBE
:101B7000E96EDACFEAFF010EEE1801E1ED506BE1FC
:101B8000080EDBCF08F0090EDBCF09F062C00DF0C4
:101B900063C00EF04FEC10F008C064F009C065F0AF
:101BA0000E0EDBCF14F00F0EDBCF15F0080EDBCFDF
:101BB00016F0090EDBCF17F015501718E8AE02D05B
:101BC000173404D01650145C1750155805E3060E50
:101BD000DB6A070EDB6A3FD0100EDB6A110EDB6A90
:101BE000100EDBCF14F0110EDBCF15F0D89015508E
:101BF00004E6080E145C000E15582DE20E0EDB2ACA
:101C00000F0E01E3DB2A100EDBCFE9FF110EDBCF55
:101C1000EAFFD890E936EA366C0EE926000EEA2291
:101C2000EECF14F0EFCF15F00E0EDBCFE9FF0F0E65
:101C3000DBCFEAFFD890E936EA36AA0EE926000E95
:101C4000EA2214C0EEFF15C0EDFF100EDB2A110EC4
:101C500001E3DB2AC5D7D950060FE96EDACFEAFFD8
:101C6000010EEE1801E1ED5049E1D9500C0FE96E7B
:101C7000DACFEAFFEE50ED1041E1D950040FE96EE2
:101C8000DACFEAFF030EEE1801E1ED500AE10A0E89
:101C9000DB6A0B0EDB6A080EDB2A090E01E3DB2A86
:101CA0002DD0D950040FE96EDACFEAFF060EEE18F8
:101CB00001E1ED5008E1010EF36E0C0EF3CFDBFFF6
:101CC0000D0EDB6A1BD0080EDBCF14F0090EDBCF44
:101CD00015F0040ED89014361536E806FBE19A0E7E
:101CE0001426000E15220A0EDB501424E96E0B0E8A
:101CF000DB501520EA6E040EDBCFEFFFD950060F44
:101D0000E96EDACFEAFFEE50ED1030E1D9500C0F5A
:101D1000E96EDACFEAFFEE50ED1028E1D950040F5A
:101D2000E96EDACFEAFF010EEE1801E1ED5008E1AD
:101D3000010EF36E060EF3CFDBFF070EDB6A16D043
:101D4000DE6ADD6A020EDB6A030EDB6A060EDB6A00
:101D5000070EDB6A080EDB68090EDB680C0EDB6A17
:101D60000D0EDB6A0E0EDB6A0F0EDB6A16D0DE6A22
:101D7000DD6A020EDB6A030EDB6A060EDB6A070E03
:101D8000DB6A080EDB68090EDB680C0EDB6A0D0EE1
:101D9000DB6A0E0EDB6A0F0EDB6A120EE15C02E2FA
:101DA000E16AE552E16EE552E7CFD9FF120021DE8C
:101DB00043DE09EC09F05CEC0AF0F4DD0DDEC1EC69
:061DC00007F0F6D7120047
:0A1DC600019E08D0019E09AE05D071
:101DD000086C091EE86A0922018E09C003F008C0D8
:101DE00002F0136A126A8E0E046E056A45EF11F056
:101DF000016A81EC11F099EC11F001B629EF11F0B4
:101E000001A205D001BA29EF11F030EF11F001BAAB
:101E10003CEF11F001A005D001B829EF11F03CEF23
:101E200011F001B830EF11F0056A7F0E0A24046E3C
:101E3000E86A05220F50045EE86A055A1A0E106E11
:101E40000A6A126A136A026A036A0C50075E0D502E
:101E5000085A0E50095A000E0A5A09E70C50072674
:101E60000D5008220E500922000E0A2201D0128ABB
:101E7000D8900736083609360A36D8901236133607
:101E800002360336102EE1D7095008100710D8A4E7
:101E9000128A45EF11F0016A81EC11F099EC11F012
:101EA00001B629EF11F001A205D001B829EF11F018
:101EB00030EF11F001AA05D001B029EF11F030EF99
:101EC00011F001B002D001A802D03CEF11F0056A78
:101ED0000F500A24046EE86A05227E0E045EE86A4A
:101EE000055A126A136A026A036A0E500902F4CF95
:101EF00003F0F3CF02F00D500902F3501326F45013
:101F00000222000E03220E500802F3501326F45052
:101F10000222000E03220C500902F3501226F45044
:101F20001322000E022203220D500802F350122643
:101F3000F4501322000E022203220E500702F35027
:101F40001226F4501322000E022203220C50080223
:101F5000F4501226000E1322022203220D50070213
:101F6000F4501226000E13220222032245EF11F034
:101F70000F7E016A81EC11F099EC11F001B629EFA6
:101F800011F001A20AD001AA03D001BE29EF11F07D
:101F900001A435EF11F032EF11F001AA05D001AC28
:101FA00035EF11F032EF11F001A00AD001A808D0EE
:101FB00001BE04D001A402D03EEF11F042EF11F0B7
:101FC000126A056A0F500A5C116E10E307C013F025
:101FD00008C002F009C003F00AC010F00CC007F0FE
:101FE0000DC008F00EC009F0013A09D00CC013F082
:101FF0000DC002F00EC003F00FC010F0116C019E76
:1020000001BC018E10C004F001B071EF11F01A0E86
:10201000116071EF11F0046A0A6A01A408D0076C1C
:10202000081E091E0A1EE86A082209220A2201ACBB
:1020300008D0136C021E031E041EE86A022203224B
:102040000422066A115207E00A34093208320732C4
:102050000632112EF9D707501326085002220950D4
:1020600003220A50042206C012F0019E04AE0BD0D7
:10207000126C131E021E031E041EE86A13220222A3
:1020800003220422018E04A006D0D880033202323B
:1020900013321232102A10C004F045EF11F0006A1A
:1020A0000EAE58EF10F00D6C0E1EE86A0E22001EE8
:1020B00009AE60EF10F0086C091EE86A0922001EE4
:1020C00015EC12F009BE70EF10F000AE000C086CB9
:1020D000091EE86A0922046C051EE86A0522000C44
:1020E00000BE67EF10F00188FF0C08C012F0085026
:1020F0000D02F4CF07F0F3CF06F009500E02F4CF33
:1021000009F0F3CF08F00D02F3500726F45008222F
:10211000E86A092212500E02F3500726F4500822F2
:10212000E86A0922000C016A81EC11F001B69DEF0A
:1021300010F001A20ED001B405D07F0E096EFF0E83
:10214000086E1FD0800E096E086A1BD0096A086AE3
:1021500018D001B0FBD78F0E0A60EDD77E0E0A644F
:10216000F5D78E0E0A5C05E0D890093208320A2AAB
:10217000F8D701A406D0086C091EE86A092209AE46
:10218000E5D71200D4EC10F001B6000C01B0000C41
:1021900001B4000C010CD4EC10F001B6000C01B03D
:1021A000000C01A4000C010C016A81EC11F099EC07
:1021B00011F001B6120001AE08D001A004D001A8B0
:1021C00002D001801200019012000F500A5C0BE156
:1021D0000E50095C08E10D50085C05E10C50075CED
:1021E00002E101801200D8A002D0018E10D00A5066
:1021F0000FC00AF00F6E09500EC009F00E6E0850A5
:102200000DC008F00D6E07500CC007F00C6E0F509B
:102210000A5C10E0FF0F09E0019001B403D001AEA9
:102220000184120001AE019412000F2AD8900E32E0
:102230000D320C320C50075E0D50085A0E50095AE0
:1022400009BEEAD7D8900736083609360A2EF8D7DD
:10225000C8D77F0E0A6EFF0E096E086E076E120059
:102260007F0E01BEFF0E0A6E02D07F0E0A6E800E38
:10227000096E086A076AF3D701AE04D0800E0A6EB1
:10228000096AF7D70A6A096AF4D7035002101310D3
:102290001210F8E005BEF0D703BE0CD004500510B4
:1022A000EBE0D89012361336023603360406D8A077
:1022B0000506F2D70550D4E10428D2E012AE11D0C1
:1022C0007F0E121402E113A00CD0132AE86A022236
:1022D000032207E3D880033202321332042A04288F
:1022E000BFE00450C9E013C007F002C008F0033497
:1022F000096E04300A6E09320A9E01BE0A8E2FEF63
:1023000011F009360A3602E30184017E06E10180FC
:102310000A6A096A086A076A12000A2803E0D88074
:1023200009321200D890093202E1018212000186BE
:1023300012000E360F3602E3018C017E06E10188A1
:102340000F6A0E6A0D6A0C6A12000F2803E0D8802B
:0E2350000E321200D8900E32EAE1018A12001D
:02235E00060E69
:10236000F66E000EF76E000EF86E00010900F550D3
:10237000B16F0900F550B26F03E1B16701D03DD0F4
:102380000900F550AC6F0900F550AD6F0900F5502C
:10239000AE6F09000900F550E96E0900F550EA6ECC
:1023A000090009000900F550AF6F0900F550B06F42
:1023B00009000900F6CFB3F0F7CFB4F0F8CFB5F0CD
:1023C000ACC0F6FFADC0F7FFAEC0F8FF0001AF53E1
:1023D00002E1B05307E00900F550EE6EAF07F8E2F6
:1023E000B007F9D7B3C0F6FFB4C0F7FFB5C0F8FF28
:0C23F0000001B107000EB25BBFD7120065
:0423FC00FF0EE3509D
:10240000216EEF0E01D0F30EE76EE72E05EF12F00E
:102410000C0E206EE76AE72E0BEF12F0202E0AEF6B
:0A24200012F0212E03EF12F012005B
:06242A00056A046A100EB1
:10243000E76ED89008360936043605360D50045C30
:102440000E50055805E30D50045E0E50055A082A3B
:06245000E72EF0D7120098
:0A245600FF0EE350216E480E01D086
:102460004C0EE76EE72EFED7E76AE72EFED7212E49
:06247000F7D70000120086
:0A247600000EF36E00EE00F0080EF9
:1024800001D81200EA6002D0EE6AFCD7F350E9608E
:062490001200EE6AFCD709
:0A24960013EE00F023EE00F0F86AE8
:1024A000019CAFEC11F078EC12F0D7EC0EF0FBD7FA
:0224B000120018
:0E24B200FF0EE350216E1B0E00D001D0200E55
:0E24C000E76EE72EFED7212EFAD700D01200CD
:0224CE00FF0EFF
:1024D000E350E84E1200000000D000D000D0E82EFB
:0424E000FAD7120015
:0C24E40050726F6A65746F20333674000C
:0224F0001200D8
:0E24F2000800020000000100000001000000D0
:102500000000000000000000000000000000002D9E
:1025100000000000000000000000000000000000BB
:0C25200000000000000000000AD7233C6F
:020000040030CA
:0100000000FF
:010001000CF2
:010002000EEF
:010003001FDD
:010005008179
:010006008178
:00000001FF
