:020000040000FA
:06000000D1EF14F0120024
:0A0006000100042A000000010000C0
:04001000BA00000032
:0C001400D9CFE6FFE1CFD9FF00000000CB
:10002000000000000000FD0EDB06FE0E01E2DB0614
:10003000D950FD0FE96EFF0EDA20EA6E000ED8806F
:10004000EE54000EED54EAE3E552E7CFD9FF12007B
:10005000D9CFE6FFE1CFD9FFE652DF6A959E959CA6
:10006000959A949E929A939EFE0EDB50E8B0818EF4
:10007000E8A0819ED950FC0FE96EFF0EDA20EA6EEF
:10008000EE50ED1061E1FB0EDB44010BE8B0838E16
:10009000E8A0839E060E146EFB0EDB5014C0E7FF33
:1000A000E75204E0E8427F0BE706FCE1E8B0838C0E
:1000B000E8A0839CFB0EDB50E00BE838E840E8B09A
:1000C000838AE8A0839AFB0EDB380F0BE8B0828EA0
:1000D000E8A0829E808A020EE66EE66A9BDFE55209
:1000E000E552809AFB0EDB40E840E8401F0BE8B089
:1000F000838EE8A0839EFB0EDB40E8403F0BE8B018
:10010000838CE8A0839CFB0EDB407F0BE8B0838AE6
:10011000E8A0839AFB0EDB50E8B0828EE8A0829EB6
:10012000808A020EE66EE66A75DFE552E552809A35
:10013000F90EDBCFE6FFFA0EDBCFE6FF6BDFE55211
:10014000E552000E64D063D0958E958C958A948E7E
:10015000808A020EE66EE66A5DDFE552E552835064
:10016000800B01E0010EDF6E8350400B01E0010EB9
:10017000146EDF50E8241410DF6E8350200B01E072
:10018000010E146EDF50E8241410DF6E8250800BD5
:1001900001E0010E146EDF50E8241410DF6E809A27
:1001A000808A020EE66EE66A35DFE552E55283503C
:1001B000800B01E0010E146EDF50E8241410DF6E96
:1001C0008350400B01E0010E146EDF50E824141040
:1001D000DF6E8350200B01E0010E146EDF50E82427
:1001E0001410DF6E8250800B01E0010E146EDF50A0
:1001F000E8241410DF6E809AF90EDBCFE6FFFA0ECA
:10020000DBCFE6FF07DFE552E552DF5000D0E552D5
:10021000E552E7CFD9FF1200D00EE66E070EE66E6C
:10022000010EE66E000EE66EE66AE66A11DF146EF7
:10023000060EE15E14501200D00EE66E070EE66E5A
:10024000020EE66E000EE66EE66AE66A01DF146EE6
:10025000060EE15E14501200D9CFE6FFE1CFD9FFC0
:10026000020EE126140EDF6EDE52100EDD6E280E39
:10027000E66EE66AD9CF14F0DACF15F0FE0EDB5049
:100280000F011424E96E000E1520EA6EEF50E66EA1
:10029000000EE66EE66AE66ADBDE166E060EE15ECC
:1002A0001650020EE15C02E2E16AE552E16EE552AF
:1002B000E7CFD9FF1200D9CFE6FFE1CFD9FF020E79
:1002C000E1261C0EDF6EDE52180EDD6E280EE66E85
:1002D000E66AD9CF14F0DACF15F0FE0EDB500F012D
:1002E0001424E96E000E1520EA6EEF50E66E000E43
:1002F000E66EE66AE66AACDE166E060EE15E165043
:10030000020EE15C02E2E16AE552E16EE552E7CFFE
:10031000D9FF1200D9CFE6FFE1CFD9FF050EE126C4
:100320000C0EDF6EDE52080EDD6E0F0EF36E020E47
:10033000F3CFDBFF0E0EF36E030EF3CFDBFF0D0EDC
:10034000F36E040EF3CFDBFF280EE66EE66AD9CF1C
:1003500014F0DACF15F0FE0EDB500F011424E96E15
:10036000000E1520EA6EEF50E66E000EE66EE66AAD
:10037000E66A6EDE166E060EE15E1650050EE15C54
:1003800002E2E16AE552E16EE552E7CFD9FF1200E1
:10039000D9CFE6FFE1CFD9FFFE0EDB50040A3DE0E6
:1003A000070A29E0010A15E0030A01E048D0280EF7
:1003B000E66EE66AFD0EDB50800FFF0FE66E000E64
:1003C000E66EE66AE66A44DE146E060EE15E1450DE
:1003D00036D0280EE66EE66AFD0EDB50C00FFF0F2A
:1003E000E66E000EE66EE66AE66A32DE146E060E11
:1003F000E15E145024D0280EE66EE66AFD0EDB5056
:10040000940FFF0FE66E000EE66EE66AE66A20DEE7
:10041000146E060EE15E145012D0280EE66EE66AE7
:10042000FD0EDB50D40FFF0FE66E000EE66EE66A9F
:10043000E66A0EDE146E060EE15E145000D0E55240
:10044000E7CFD9FF1200D9CFE6FFE1CFD9FF2D0EBC
:10045000E66EE66AFE0EDBCFE6FF000EE66EE66AAB
:10046000010EE66EF5DD146E060EE15E1450E552E7
:10047000E7CFD9FF12002D0EE66EE66AE66A010E9E
:10048000E66EE66AE66EE4DD146E060EE15E14507A
:1004900000D01200280EE66EE66AE66A010EE66EED
:1004A000E66AE66AD5DD146E060EE15E145000D0F1
:1004B0001200D9CFE6FFE1CFD9FFFD0EDBCFF6FF6B
:1004C000FE0EDBCFF7FF0800F55011E0FD0EDBCF8D
:1004D000F6FFFE0EDBCFF7FF0800F550E66EB3DF48
:1004E000E552FD0EDB2AFE0E01E3DB2AE6D7E552DC
:1004F000E7CFD9FF1200D9CFE6FFE1CFD9FFFC0E3D
:10050000DBCFF3FFDB06F350000910E0FD0EDBCF7D
:10051000E9FFFE0EDBCFEAFFEF50E66E94DFE55217
:10052000FD0EDB2AFE0E01E3DB2AE9D7E552E7CF19
:10053000D9FF1200D9CFE6FFE1CFD9FF070EE126A0
:10054000030EDF6EDE52020EDD6EDB6A030EDB6A27
:10055000040EDB6A050EDB6AFE0EDB50E76E020E50
:10056000E7CFDBFFFD0EDB50E76E030EE7CFDBFFCF
:10057000FC0EDB50E76E040EE7CFDBFF959E959CEB
:10058000959A949E929A939E819E809A200EE66EF2
:100590004E0EE66E3FDDE552E552060EDB6A030EB7
:1005A000F36E060EDBCFF4FFF350F45C2EE2DF5067
:1005B000E840E840E8401F0BE8B0838EE8A0839E47
:1005C000DF50E840E8403F0BE8B0838CE8A0839C14
:1005D000DF407F0BE8B0838AE8A0839ADF50E8B061
:1005E000828EE8A0829E808A020EE66EE66A12DDA6
:1005F000E552E552809A880EE66E130EE66E0ADD2D
:10060000E552E552060EDB2ACAD7010EDB40E84070
:10061000E8401F0BE8B0838EE8A0839E010EDB400C
:10062000E8403F0BE8B0838CE8A0839C010EDB40E0
:100630007F0BE8B0838AE8A0839A010EDB50E8B014
:10064000828EE8A0829E808A020EE66EE66AE2DC76
:10065000E552E552809A280EE66EE66ADBDCE5524A
:10066000E552280EE66EE66A020EDBCFE6FF000ECC
:10067000E66EE66AE66AECDC146E060EE15E145085
:10068000280EE66EE66A030EDBCFE6FF000EE66E8E
:10069000E66AE66ADDDC146E060EE15E1450280E92
:1006A000E66EE66A040EDBCFE6FF000EE66EE66A53
:1006B000E66ACEDC146E060EE15E1450ADDD070E68
:1006C000E15C02E2E16AE552E16EE552E7CFD9FF73
:1006D0001200D9CFE6FFE1CFD9FF020EE126DE6A94
:1006E000DD6AFB0EDBCF14F0FC0EDBCF15F0FD0E48
:1006F000DBCF16F0FE0EDBCF17F00C6A0D6A7A0E18
:100700000E6E440E0F6E14C007F015C008F016C030
:1007100009F017C00AF07AEC11F0FB0E07C0DBFFFE
:10072000FC0E08C0DBFFFD0E09C0DBFFFE0E0AC099
:10073000DBFFFB0EDBCF14F0FC0EDBCF15F0FD0E64
:10074000DBCF16F0FE0EDBCF17F00C6A0D6A0E6AD7
:100750000F6A14C007F015C008F016C009F017C0E2
:100760000AF0FAEC12F0010A02E1000E01D0010ECB
:10077000010E000950E0FB0EDBCF18F0FC0EDBCFC2
:1007800019F0FD0EDBCF1AF0FE0EDBCF1BF09CC183
:1007900008F09DC109F014EC11F007C01CF008C06E
:1007A0001DF009C01EF00AC01FF01CC00CF01DC0D7
:1007B0000DF01EC00EF01FC00FF018C007F019C0DA
:1007C00008F01AC009F01BC00AF07AEC11F007C05B
:1007D00014F008C015F009C016F00AC017F00C6A32
:1007E0000D6A200E0E6E420E0F6E14C007F015C07B
:1007F00008F016C009F017C00AF027EC11F0C2EC9F
:1008000012F008C0DEFF09C0DDFFDFCFE6FF84EC99
:1008100014F0E55294D1FB0EDBCF14F0FC0EDBCFCD
:1008200015F0FD0EDBCF16F0FE0EDBCF17F00C6AD5
:100830000D6A0E6A0F6A14C007F015C008F016C0E2
:1008400009F017C00AF0F1EC12F0010A02E1000E03
:1008500001D0010EFB0EDBCF18F0FC0EDBCF19F040
:10086000FD0EDBCF1AF0FE0EDBCF1BF00C6A0D6A1B
:100870000E6A0F6A18C007F019C008F01AC009F014
:100880001BC00AF0F1EC12F0010A02E0000E01D0E8
:10089000010E010E000950E0FB0EDBCF18F0FC0E3C
:1008A000DBCF19F0FD0EDBCF1AF0FE0EDBCF1BF015
:1008B0009CC108F09DC109F014EC11F007C01CF0B8
:1008C00008C01DF009C01EF00AC01FF01CC00CF0CB
:1008D0001DC00DF01EC00EF01FC00FF018C007F0B5
:1008E00019C008F01AC009F01BC00AF07AEC11F028
:1008F00007C014F008C015F009C016F00AC017F0C0
:100900000C6A0D6AC80E0E6E430E0F6E14C007F00F
:1009100015C008F016C009F017C00AF027EC11F056
:10092000C2EC12F008C0DEFF09C0DDFFDFCFE6FF3A
:10093000B1EC14F0E55203D1FB0EDBCF14F0FC0E4A
:10094000DBCF15F0FD0EDBCF16F0FE0EDBCF17F080
:100950000C6A0D6A0E6A0F6A14C007F015C008F021
:1009600016C009F017C00AF0F1EC12F0010A02E11A
:10097000000E01D0010EFB0EDBCF18F0FC0EDBCF1A
:1009800019F0FD0EDBCF1AF0FE0EDBCF1BF00C6A68
:100990000D6A0E6A0F6A18C007F019C008F01AC075
:1009A00009F01BC00AF0FAEC12F0010A02E0000E96
:1009B00001D0010E010E000950E0FB0EDBCF18F054
:1009C000FC0EDBCF19F0FD0EDBCF1AF0FE0EDBCFF5
:1009D0001BF09CC108F09DC109F014EC11F007C098
:1009E0001CF008C01DF009C01EF00AC01FF01CC09A
:1009F0000CF01DC00DF01EC00EF01FC00FF018C08F
:100A000007F019C008F01AC009F01BC00AF07AEC10
:100A100011F007C014F008C015F009C016F00AC0A4
:100A200017F00C6A0D6A7A0E0E6E450E0F6E14C02A
:100A300007F015C008F016C009F017C00AF027EC3F
:100A400011F0C2EC12F008C0DEFF09C0DDFFDFCFFD
:100A5000E6FFDFEC14F0E55272D0FB0EDBCF14F0B2
:100A6000FC0EDBCF15F0FD0EDBCF16F0FE0EDBCF5C
:100A700017F00C6A0D6A0E6A0F6A14C007F015C0F1
:100A800008F016C009F017C00AF0F1EC12F0010AE4
:100A900002E0000E01D0010E010E000950E0FB0E35
:100AA000DBCF18F0FC0EDBCF19F0FD0EDBCF1AF018
:100AB000FE0EDBCF1BF09CC108F09DC109F014ECC9
:100AC00011F007C01CF008C01DF009C01EF00AC0DC
:100AD0001FF01CC00CF01DC00DF01EC00EF01FC09A
:100AE0000FF018C007F019C008F01AC009F01BC0B9
:100AF0000AF07AEC11F007C014F008C015F009C034
:100B000016F00AC017F00C6A400E0D6E1C0E0E6E29
:100B1000470E0F6E14C007F015C008F016C009F09C
:100B200017C00AF027EC11F0C2EC12F008C0DEFF8B
:100B300009C0DDFFDFCFE6FFEDEC14F0E552020E59
:100B4000E15C02E2E16AE552E16EE552E7CFD9FFEE
:100B50001200D9CFE6FFE1CFD9FF020EE126DE6A0F
:100B6000DD6AFB0EDBCF14F0FC0EDBCF15F0FD0EC3
:100B7000DBCF16F0FE0EDBCF17F00C6A0D6A0E6AA3
:100B80000F6A14C007F015C008F016C009F017C0AE
:100B90000AF0FAEC12F0010A02E1000E01D0010E97
:100BA000010E000950E0FB0EDBCF18F0FC0EDBCF8E
:100BB00019F0FD0EDBCF1AF0FE0EDBCF1BF09CC14F
:100BC00008F09DC109F014EC11F007C01CF008C03A
:100BD0001DF009C01EF00AC01FF01CC00CF01DC0A3
:100BE0000DF01EC00EF01FC00FF018C007F019C0A6
:100BF00008F01AC009F01BC00AF07AEC11F007C027
:100C000014F008C015F009C016F00AC017F00C6AFD
:100C10000D6A200E0E6E420E0F6E14C007F015C046
:100C200008F016C009F017C00AF027EC11F0C2EC6A
:100C300012F008C0DEFF09C0DDFFDFCFE6FF84EC65
:100C400014F0E55294D1FB0EDBCF14F0FC0EDBCF99
:100C500015F0FD0EDBCF16F0FE0EDBCF17F00C6AA1
:100C60000D6A0E6A0F6A14C007F015C008F016C0AE
:100C700009F017C00AF0F1EC12F0010A02E1000ECF
:100C800001D0010EFB0EDBCF18F0FC0EDBCF19F00C
:100C9000FD0EDBCF1AF0FE0EDBCF1BF00C6A0D6AE7
:100CA0000E6A0F6A18C007F019C008F01AC009F0E0
:100CB0001BC00AF0F1EC12F0010A02E0000E01D0B4
:100CC000010E010E000950E0FB0EDBCF18F0FC0E08
:100CD000DBCF19F0FD0EDBCF1AF0FE0EDBCF1BF0E1
:100CE0009CC108F09DC109F014EC11F007C01CF084
:100CF00008C01DF009C01EF00AC01FF01CC00CF097
:100D00001DC00DF01EC00EF01FC00FF018C007F080
:100D100019C008F01AC009F01BC00AF07AEC11F0F3
:100D200007C014F008C015F009C016F00AC017F08B
:100D30000C6A0D6AC80E0E6E430E0F6E14C007F0DB
:100D400015C008F016C009F017C00AF027EC11F022
:100D5000C2EC12F008C0DEFF09C0DDFFDFCFE6FF06
:100D6000B1EC14F0E55203D1FB0EDBCF14F0FC0E16
:100D7000DBCF15F0FD0EDBCF16F0FE0EDBCF17F04C
:100D80000C6A0D6A0E6A0F6A14C007F015C008F0ED
:100D900016C009F017C00AF0F1EC12F0010A02E1E6
:100DA000000E01D0010EFB0EDBCF18F0FC0EDBCFE6
:100DB00019F0FD0EDBCF1AF0FE0EDBCF1BF00C6A34
:100DC0000D6A0E6A0F6A18C007F019C008F01AC041
:100DD00009F01BC00AF0FAEC12F0010A02E0000E62
:100DE00001D0010E010E000950E0FB0EDBCF18F020
:100DF000FC0EDBCF19F0FD0EDBCF1AF0FE0EDBCFC1
:100E00001BF09CC108F09DC109F014EC11F007C063
:100E10001CF008C01DF009C01EF00AC01FF01CC065
:100E20000CF01DC00DF01EC00EF01FC00FF018C05A
:100E300007F019C008F01AC009F01BC00AF07AECDC
:100E400011F007C014F008C015F009C016F00AC070
:100E500017F00C6A0D6A7A0E0E6E450E0F6E14C0F6
:100E600007F015C008F016C009F017C00AF027EC0B
:100E700011F0C2EC12F008C0DEFF09C0DDFFDFCFC9
:100E8000E6FFDFEC14F0E55272D0FB0EDBCF14F07E
:100E9000FC0EDBCF15F0FD0EDBCF16F0FE0EDBCF28
:100EA00017F00C6A0D6A0E6A0F6A14C007F015C0BD
:100EB00008F016C009F017C00AF0F1EC12F0010AB0
:100EC00002E0000E01D0010E010E000950E0FB0E01
:100ED000DBCF18F0FC0EDBCF19F0FD0EDBCF1AF0E4
:100EE000FE0EDBCF1BF09CC108F09DC109F014EC95
:100EF00011F007C01CF008C01DF009C01EF00AC0A8
:100F00001FF01CC00CF01DC00DF01EC00EF01FC065
:100F10000FF018C007F019C008F01AC009F01BC084
:100F20000AF07AEC11F007C014F008C015F009C0FF
:100F300016F00AC017F00C6A400E0D6E1C0E0E6EF5
:100F4000470E0F6E14C007F015C008F016C009F068
:100F500017C00AF027EC11F0C2EC12F008C0DEFF57
:100F600009C0DDFFDFCFE6FFEDEC14F0E552020E25
:100F7000E15C02E2E16AE552E16EE552E7CFD9FFBA
:100F80001200010E01019E6F9F6BA051A11171E033
:100F9000A06BA16B146A156A7A0E166E440E176E5A
:100FA000A4C10CF0A5C10DF0A6C10EF0A7C10FF0B1
:100FB00014C007F015C008F016C009F017C00AF0F9
:100FC00027EC11F007C0A8F108C0A9F109C0AAF1E7
:100FD0000AC0ABF1640E0D6E0E6AB4C108F0B5C163
:100FE00009F07EEC12F008C0B4F109C0B5F1B4C14B
:100FF00008F0B5C109F014EC11F007C014F008C0F6
:1010000015F009C016F00AC017F014C00CF015C096
:101010000DF016C00EF017C00FF0A8C107F0A9C15F
:1010200008F0AAC109F0ABC10AF07AEC11F007C0D0
:10103000ACF108C0ADF109C0AEF10AC0AFF1ACC16E
:101040000CF0ADC10DF0AEC10EF0AFC10FF0A8C1F4
:1010500007F0A9C108F0AAC109F0ABC10AF0E7EC9A
:1010600011F007C0B0F108C0B1F109C0B2F10AC077
:10107000B3F18280ACC1E6FFADC1E6FFAEC1E6FFD1
:10108000AFC1E6FF69EC03F0E552E552E552E552E7
:101090008280B0C1E6FFB1C1E6FFB2C1E6FFB3C1D5
:1010A000E6FF69EC03F0E552E552E552E552120025
:1010B000806A816A826A836A846A896A8A6A8B6AB8
:1010C0008C6A8D6A926A93683E0E946EF00E956EED
:1010D000966AE66AE66A400EE66EE66E3ADDE5522C
:1010E000E552E552E55212008150010B01018C6F6F
:1010F0008D6B8150020B01E0010E8E6F8F6B815062
:10110000040B01E0010E906F916B8150080B01E020
:10111000010E926F936B8150100B01E0010E946FE2
:10112000956B8150200B01E0010E966F976B8150FB
:10113000400B01E0010E986F996B120082B412D03F
:10114000E66AE66AFA0EE66E430EE66E69EC03F0B6
:10115000E552E552E552E55282B404D0010E010198
:10116000866F876B82B811D0E66AE66AFA0EE66E81
:10117000430EE66E69EC03F0E552E552E552E552A6
:1011800082B803D00101866B876B82BA1AD0E66AF7
:10119000E66AFA0EE66E430EE66E69EC03F0E5527F
:1011A000E552E552E55282BA0CD001018A2B000EBD
:1011B0008B238A51045D8B51055903E2010E8A6F1E
:1011C0008B6B82BC1BD0E66AE66AFA0EE66E430EB3
:1011D000E66E69EC03F0E552E552E552E55282BC59
:1011E0000DD001018A07000E8B5B010E8A5D000E97
:1011F0008B5904E204C18AF105C18BF11200D9CFE9
:10120000E6FFE1CFD9FF060EE126040EDB6A050EEC
:10121000DB6A0CEC01F001018651871101E12ED14E
:10122000DE6ADD6ADFCF14F0DF2A010EDBCF15F0B6
:1012300001E3DB2A1450151001E11FD1DECF14F0B9
:10124000DDCF15F08AC116F08BC117F01606000E1F
:10125000175A16C008F017C009F002C10DF003C1FB
:101260000EF0A4EC12F014500624E96E155007207D
:10127000EA6E010ED890E936EA36E806FBE18C0EFC
:10128000E926010EEA22EE50ED1001E1E2D0040E53
:10129000DBCF18F0050EDBCF19F00101195003194F
:1012A000E8AE02D0033504D00251185C035119583E
:1012B00001E3CFD0040EDB2A050E01E3DB2AD9506F
:1012C000040FE96EDACFEAFFEE50ED105CE1010E9B
:1012D000E66EE66EC8EC01F0E552E552020EDB6AFE
:1012E000030EDB6A020EDBCF14F0DB2A030EDBCF2A
:1012F00015F001E3DB2A1450151044E0DECF16F0A0
:10130000DDCF17F08AC118F08BC119F01806000E56
:10131000195A18C008F019C009F002C10DF003C134
:101320000EF0A4EC12F016500624146E175007208D
:10133000156E040ED89014361536E806FBE1060E3D
:101340001426010E1522020EDB501424E96E030E42
:10135000DB501520EA6EEF50E66E23EC02F0E5520A
:10136000020EDBCF14F0030EDBCF15F0D890155032
:1013700004E6100E145C000E155802E3000E01D0B6
:10138000010EB0D766D0D950040FE96EDACFEAFF6C
:10139000010EEE1801E1ED505CE1010EE66E020E69
:1013A000E66EC8EC01F0E552E552020EDB6A030E70
:1013B000DB6A020EDBCF14F0DB2A030EDBCF15F065
:1013C00001E3DB2A1450151044E0DECF16F0DDCF28
:1013D00017F08AC118F08BC119F01806000E195ABF
:1013E00018C008F019C009F002C10DF003C10EF0D9
:1013F000A4EC12F016500624146E17500720156E38
:10140000040ED89014361536E806FBE1060E1426B5
:10141000010E1522020EDB501424E96E030EDB5080
:101420001520EA6EEF50E66E23EC02F0E552020E54
:10143000DBCF14F0030EDBCF15F0D890155004E687
:10144000100E145C000E155802E3000E01D0010EC0
:10145000B0D7DECF14F0DDCF15F001011550011922
:10146000E8AE02D0013504D00051145C015115588A
:1014700002E3000E01D0010ED5D62DD1DE6ADD6A61
:10148000DFCF14F0DF2A010EDBCF15F001E3DB2AFA
:101490001450151001E11FD1DECF14F0DDCF15F08F
:1014A0008AC116F08BC117F01606000E175A16C027
:1014B00008F017C009F002C10DF003C10EF0A4EC52
:1014C00012F014500624E96E15500720EA6E010E42
:1014D000D890E936EA36E806FBE18C0EE926010EE3
:1014E000EA22EE50ED1001E0E2D0040EDBCF18F05E
:1014F000050EDBCF19F0010119500319E8AE02D037
:10150000033504D00251185C0351195801E3CFD0C0
:10151000040EDB2A050E01E3DB2AD950040FE96E25
:10152000DACFEAFFEE50ED105CE1010EE66EE66EFA
:10153000C8EC01F0E552E552020EDB6A030EDB6AED
:10154000020EDBCF14F0DB2A030EDBCF15F001E334
:10155000DB2A1450151044E0DECF16F0DDCF17F073
:101560008AC118F08BC119F01806000E195A18C05C
:1015700008F019C009F002C10DF003C10EF0A4EC8F
:1015800012F016500624146E17500720156E040E24
:10159000D89014361536E806FBE1060E1426010E27
:1015A0001522020EDB501424E96E030EDB501520C9
:1015B000EA6EEF50E66E23EC02F0E552020EDBCF4E
:1015C00014F0030EDBCF15F0D890155004E6100E82
:1015D000145C000E155802E3000E01D0010EB0D7C6
:1015E00066D0D950040FE96EDACFEAFF010EEE188B
:1015F00001E1ED505CE1010EE66E020EE66EC8EC14
:1016000001F0E552E552020EDB6A030EDB6A020EC0
:10161000DBCF14F0DB2A030EDBCF15F001E3DB2A6E
:101620001450151044E0DECF16F0DDCF17F08AC15C
:1016300018F08BC119F01806000E195A18C008F0DE
:1016400019C009F002C10DF003C10EF0A4EC12F0B4
:1016500016500624146E17500720156E040ED890ED
:1016600014361536E806FBE1060E1426010E152287
:10167000020EDB501424E96E030EDB501520EA6ED7
:10168000EF50E66E23EC02F0E552020EDBCF14F0D1
:10169000030EDBCF15F0D890155004E6100E145C45
:1016A000000E155802E3000E01D0010EB0D7DECFB8
:1016B00014F0DDCF15F0010115500119E8AE02D08C
:1016C000013504D00051145C0151155802E3000E9D
:1016D00001D0010ED5D6060EE15C02E2E16AE552C8
:1016E000E16EE552E7CFD9FF12008098B6C1E6FF60
:1016F000B7C1E6FFB8C1E6FFB9C1E6FF69EC03F088
:10170000E552E552E552E5528088809080928094BF
:101710008096120001018851891113E0A251A31192
:101720000CE1010EA06FA16BA46BA56BFA0EA66F66
:10173000430EA76F010EA26FA36B010E9E6F9F6BEE
:1017400002D09E6B9F6B120001018651E8B084802D
:10175000E8A084908450010B02E0849201D084823E
:101760001200D9CFE6FFE1CFD9FFFE0EDB507A0A97
:1017700001E1A8D3030A01E198D3010A01E188D36A
:101780000F0A01E178D3010A01E169D3030A01E1FB
:101790005BD3010A01E14DD3070A01E13FD3010AFE
:1017A00001E131D3030A01E123D3010A01E115D399
:1017B0001F0A01E107D3010A01E1F9D2030A01E19D
:1017C000EBD2010A01E1DDD2070A01E1CFD2010A21
:1017D00001E1C1D2030A01E1B3D2010A01E1A5D2BC
:1017E0000F0A01E197D2010A01E189D2030A01E15E
:1017F0007BD2010A01E16DD2070A01E15FD2010A41
:1018000001E151D2030A01E143D23B0A01E135D2A1
:10181000030A01E127D2010A01E119D20F0A01E10D
:101820000BD2010A01E1FDD1030A01E1EFD1010A66
:1018300001E1E1D1070A01E1D3D1010A01E1C5D1FA
:10184000030A01E1B7D1010A01E1A9D11F0A01E1AF
:101850009BD1010A01E18DD1030A01E17FD1010A87
:1018600001E171D1070A01E163D1010A01E155D11A
:10187000030A01E147D1010A01E139D10F0A01E16F
:101880002BD1010A01E11DD1030A01E10FD1010AA7
:1018900001E101D1070A01E1F3D0010A01E1E5D03C
:1018A000030A01E1D7D0780A01E1C9D0010A01E1B8
:1018B000BBD00F0A01E1ADD0010A01E19FD0030ABC
:1018C00001E191D0010A01E183D0070A76E0010A23
:1018D00069E0030A5CE0010A4FE0360A42E0030ACD
:1018E00035E0010A28E0070A1BE0030A0EE0010ABE
:1018F00001E0F5D28096809480928080F6DE80961A
:10190000809480928090F1DEEAD2809680948092DA
:101910008090EBDE8096809480928090E6DEDFD22D
:101920008096809480828080E0DE80968094809291
:101930008090DBDED4D28096808480928090D5DE49
:101940008096809480928090D0DEC9D280968084E8
:1019500080928080CADE8096809480928090C5DEDE
:10196000BED28096808480828090BFDE80968094F4
:1019700080928090BADEB3D28096809480928090DC
:10198000B4DE8096809480828080AFDEA8D280967C
:10199000809480928080A9DE80968094808280806E
:1019A000A4DE9DD280968094808280909EDE809678
:1019B00080948082808099DE92D28096809480820A
:1019C000808093DE80968094808280808EDE87D2B5
:1019D000809680848092809088DE80968094808239
:1019E000808083DE7CD280968084809280807DDEC1
:1019F000809680948082808078DE71D28096808408
:101A00008082809072DE80968094808280806DDEFD
:101A100066D2809680848082808067DE8096809403
:101A20008082808062DE5BD280868094809280900B
:101A30005CDE809680948082808057DE50D28086E3
:101A400080948092808051DE809680948082808015
:101A50004CDE45D2809680948092808046DE8096CF
:101A600080848092809041DE3AD2809680948082F9
:101A700080903BDE809680848092809036DE2FD2EC
:101A8000809680948082808030DE809680848092F0
:101A900080902BDE24D2809680848092809025DEF8
:101AA000809680848092809020DE19D280968084F7
:101AB000809280801ADE809680848092809015DEED
:101AC0000ED280968084808280900FDE8096808403
:101AD000809280900ADE03D280968084808280800B
:101AE00004DE8096808480928090FFDDF8D180862D
:101AF000809480928090F9DD80968084809280909E
:101B0000F4DDEDD18086809480928080EEDD809639
:101B1000808480928090E9DDE2D18086809480820A
:101B20008090E3DD8096808480928090DEDDD7D146
:101B30008086809480828080D8DD809680848092A8
:101B40008090D3DDCCD18086808480928090CDDD62
:101B50008096808480928090C8DDC1D18086808408
:101B600080928080C2DD8096808480928090BDDDEE
:101B7000B6D18086808480828090B7DD8096808414
:101B800080928090B2DDABD180868084808280801C
:101B9000ACDD8096808480928090A7DDA0D1809675
:101BA000809480928090A1DD809680848092808055
:101BB0009CDD95D1809680948092808096DD809681
:101BC00080848092808091DD8AD18096809480820A
:101BD00080908BDD809680848092808086DD7FD1AE
:101BE000809680948082808080DD80968084809240
:101BF00080807BDD74D1809680848092809075DDBA
:101C0000809680848092808070DD69D18096808407
:101C1000809280806ADD809680848092808065DDFD
:101C20005ED180968084808280905FDD8096808403
:101C3000809280805ADD53D180968084808280801B
:101C400054DD80968084809280804FDD48D18086EC
:101C500080948092809049DD8096808480928080FC
:101C600044DD3DD180868094809280803EDD8096E8
:101C700080848092808039DD32D180868094808219
:101C8000809033DD80968084809280802EDD27D105
:101C9000809680948092808028DD809680848082E7
:101CA000809023DD1CD180968094808280901DDD01
:101CB000809680848082809018DD11D180968094F7
:101CC0008082808012DD80968084808280900DDD0D
:101CD00006D1809680848092809007DD80968084F3
:101CE0008082809002DDFBD080968084809280800C
:101CF000FCDC8096808480828090F7DCF0D0809637
:101D0000808480828090F1DC8096808480828090C4
:101D1000ECDCE5D08096808480828080E6DC809652
:101D2000808480828090E1DCDAD08086809480920A
:101D30008090DBDC8096808480828090D6DCCFD05F
:101D40008086809480928080D0DC8096808480829F
:101D50008090CBDCC4D08086809480828090C5DC6B
:101D60008096808480828090C0DCB9D08086809408
:101D700080828080BADC8096808480828090B5DC0E
:101D8000AED08086808480928090AFDC8096808404
:101D900080828090AADCA3D080868084809280801C
:101DA000A4DC80968084808280909FDC98D080869E
:101DB00080848082809099DC80968084808280906C
:101DC00094DC8DD080868084808280808EDC8096BA
:101DD00080848082809089DC82D0809680948092FA
:101DE000809083DC80968084808280807EDC77D0C7
:101DF000809680948092808078DC80968084808237
:101E0000808073DC6CD080968094808280906DDCC2
:101E1000809680848082808068DC61D08096809407
:101E20008082808062DC80968084808280805DDC1D
:101E300056D0809680848092809057DC80968084F3
:101E40008082808052DC4BD080968084809280801B
:101E50004CDC809680848082808047DC40D08096F5
:101E600080848082809041DC809680848082808023
:101E700075EC0BF034D0809680848082808075EC85
:101E80000BF0809680848082808075EC0BF027D0E8
:101E9000808680948092809075EC0BF08096808490
:101EA0008082808075EC0BF01AD0808680948092BE
:101EB000808075EC0BF0809680848082808075EC49
:101EC0000BF00DD0808680948082809075EC0BF0B2
:101ED000809680848082808075EC0BF000D0E55283
:101EE000E7CFD9FF1200D9CFE6FFE1CFD9FF040E2B
:101EF000E126010EE66EB1EC0BF0E552020EDB6A54
:101F0000030EDB6A020EDBCF14F0030EDBCF15F0FD
:101F1000010115500119E8AE02D0013504D000517D
:101F2000145C0151155839E2030EE66EB1EC0BF06A
:101F3000E552DE6ADD6ADECF14F0DDCF15F0D89011
:101F4000155004E6100E145C000E155820E2020E27
:101F5000DBCF14F0030EDBCF15F0040ED89014364F
:101F60001536E806FBE1060E1426010E1522DE509A
:101F70001424E96EDD501520EA6EEF50E66EB1ECE8
:101F80000BF0E552DF2A010E01E3DB2AD4D7020E63
:101F9000DB2A030E01E3DB2AB5D7060EE66EB1ECB1
:101FA0000BF0E55201018C51E8B08080E8A08090F0
:101FB0008E51E8B08082E8A080929051E8B0808491
:101FC000E8A080949251E8B08086E8A0809675ECF5
:101FD0000BF001019451E8B08080E8A08090965108
:101FE000E8B08082E8A080929851E8B08084E8A0B0
:101FF00080949A51E8B08086E8A0809675EC0BF04A
:1020000001018851E8B08080E8A080908851E8B054
:102010008082E8A080928851E8B08084E8A0809413
:102020008851E8B08086E8A0809675EC0BF0E66AEF
:10203000B1EC0BF0E552040EE15C02E2E16AE5521C
:10204000E16EE552E7CFD9FF1200D9CFE6FFE1CF2D
:10205000D9FF040EE126020EDB6A030EDB6ADE6A9C
:10206000DD6ADECF14F0DDCF15F001010151151846
:10207000E8AE02D0153404D01450005D155001595B
:102080002BE3DECFE9FFDDCFEAFFD890E936EA3671
:102090008C0EE926010EEA22EE50ED1006E0020E4B
:1020A000DB2A030E01E3DB2A06D0010E886F896B61
:1020B000080EDE6EDD6AD950020FE96EDACFEAFF54
:1020C000080EEE1801E1ED5002E1886B896BDF2A02
:1020D000010E01E3DB2AC5D7040EE15C02E2E16AEE
:1020E000E552E16EE552E7CFD9FF1200D9CFE6FF06
:1020F000E1CFD9FF020EE126DE6ADD6AD70EE66E79
:1021000068EC14F0E552000EE66EE66A4CEC14F052
:10211000E552E5522DEC14F0F3CF14F0F4CF15F0A6
:10212000080ED8801454000E155417E382B214D050
:10213000A60EE66E9B0EE66EC40EE66E3B0EE66ED7
:1021400069EC03F0E552E552E552E55282B204D063
:10215000DF2A010E01E3DB2ADDD7FEEC14F0D9CF34
:10216000E9FFDACFEAFF030EEE1801E1ED5002E1DC
:102170006CDF0CD0D9CFE9FFDACFEAFF040EEE18FE
:1021800001E1ED5003E10101886B896B020EE15C16
:1021900002E2E16AE552E16EE552E7CFD9FF1200B3
:1021A00000C108F001C109F002C10DF003C10EF039
:1021B0007EEC12F008C004F109C005F18088060E1B
:1021C000E66E0F0EE66E280EE66E9AEC02F0E55211
:1021D000E552E552E66A8AEC01F0E5520CEC01F0BA
:1021E000010EE66EE66EC8EC01F0E552E552F00E27
:1021F000E66E290EE66E59EC02F0E552E55258EF14
:1022000008F0CEDF74EC08F09EEC08F0FFEC08F06C
:102210008AEC0BF0A4EC0BF069DF65DEC1EC07F093
:04222000F1D71200E0
:0C222400019E08D0019E09AE05D0086C98
:10223000091EE86A0922018E09C003F008C002F0F5
:10224000136A126A8E0E046E056A74EF13F0016A47
:10225000B0EC13F0C8EC13F001B658EF13F001A284
:1022600005D001BA58EF13F05FEF13F001BA6BEF2E
:1022700013F001A005D001B858EF13F06BEF13F085
:1022800001B85FEF13F0056A7F0E0A24046EE86A56
:1022900005220F50045EE86A055A1A0E106E0A6A8B
:1022A000126A136A026A036A0C50075E0D50085ADC
:1022B0000E50095A000E0A5A09E70C5007260D5015
:1022C00008220E500922000E0A2201D0128AD8904C
:1022D0000736083609360A36D890123613360236D3
:1022E0000336102EE1D7095008100710D8A4128A1F
:1022F00074EF13F0016AB0EC13F0C8EC13F001B600
:1023000058EF13F001A205D001B858EF13F05FEFBA
:1023100013F001AA05D001B058EF13F05FEF13F0EE
:1023200001B002D001A802D06BEF13F0056A0F5084
:102330000A24046EE86A05227E0E045EE86A055AE5
:10234000126A136A026A036A0E500902F4CF03F09C
:10235000F3CF02F00D500902F3501326F45002227D
:10236000000E03220E500802F3501326F4500222EE
:10237000000E03220C500902F3501226F4501322CF
:10238000000E022203220D500802F3501226F450D0
:102390001322000E022203220E500702F3501226CF
:1023A000F4501322000E022203220C500802F450B3
:1023B0001226000E1322022203220D500702F450AF
:1023C0001226000E13220222032274EF13F00F7E56
:1023D000016AB0EC13F0C8EC13F001B658EF13F03B
:1023E00001A20AD001AA03D001BE58EF13F001A444
:1023F00064EF13F061EF13F001AA05D001AC64EFB4
:1024000013F061EF13F001A00AD001A808D001BEBB
:1024100004D001A402D06DEF13F071EF13F0126A33
:10242000056A0F500A5C116E10E307C013F008C074
:1024300002F009C003F00AC010F00CC007F00DC094
:1024400008F00EC009F0013A09D00CC013F00DC01D
:1024500002F00EC003F00FC010F0116C019E01BC21
:10246000018E10C004F001B0A0EF13F01A0E11603D
:10247000A0EF13F0046A0A6A01A408D0076C081ED2
:10248000091E0A1EE86A082209220A2201AC08D0A5
:10249000136C021E031E041EE86A02220322042299
:1024A000066A115207E00A3409320832073206324E
:1024B000112EF9D707501326085002220950032283
:1024C0000A50042206C012F0019E04AE0BD0126C1A
:1024D000131E021E031E041EE86A13220222032298
:1024E0000422018E04A006D0D880033202321332B7
:1024F0001232102A10C004F074EF13F0006A0EAE0E
:1025000087EF12F00D6C0E1EE86A0E22001E09AE57
:102510008FEF12F0086C091EE86A0922001E9BEC7E
:1025200014F009BE9FEF12F000AE000C086C091EFB
:10253000E86A0922046C051EE86A0522000C00BE48
:1025400096EF12F00188FF0C08C012F008500D023F
:10255000F4CF07F0F3CF06F009500E02F4CF09F0E4
:10256000F3CF08F00D02F3500726F4500822E86A72
:10257000092212500E02F3500726F4500822E86A8E
:102580000922000C016AB0EC13F001B6CCEF12F096
:1025900001A20ED001B405D07F0E096EFF0E086EA9
:1025A0001FD0800E096E086A1BD0096A086A18D00D
:1025B00001B0FBD78F0E0A60EDD77E0E0A64F5D707
:1025C0008E0E0A5C05E0D890093208320A2AF8D744
:1025D00001A406D0086C091EE86A092209AEE5D7F5
:1025E000120003EC13F001B6000C01B0000C01B4B2
:1025F000000C010C03EC13F001B6000C01B0000C50
:1026000001A4000C010C016AB0EC13F0C8EC13F04B
:1026100001B6120001AE08D001A004D001A802D07A
:1026200001801200019012000F500A5C0BE10E5065
:10263000095C08E10D50085C05E10C50075C02E103
:1026400001801200D8A002D0018E10D00A500FC015
:102650000AF00F6E09500EC009F00E6E08500DC042
:1026600008F00D6E07500CC007F00C6E0F500A5C9E
:1026700010E0FF0F09E0019001B403D001AE018426
:10268000120001AE019412000F2AD8900E320D32C2
:102690000C320C50075E0D50085A0E50095A09BEF4
:1026A000EAD7D8900736083609360A2EF8D7C8D7A1
:1026B0007F0E0A6EFF0E096E086E076E12007F0E07
:1026C00001BEFF0E0A6E02D07F0E0A6E800E096EEA
:1026D000086A076AF3D701AE04D0800E0A6E096A51
:1026E000F7D70A6A096AF4D70350021013101210C0
:1026F000F8E005BEF0D703BE0CD004500510EBE0A7
:10270000D89012361336023603360406D8A00506D2
:10271000F2D70550D4E10428D2E012AE11D07F0EDA
:10272000121402E113A00CD0132AE86A0222032239
:1027300007E3D880033202321332042A0428BFE0B0
:102740000450C9E013C007F002C008F00334096E5A
:1027500004300A6E09320A9E01BE0A8E5EEF13F043
:1027600009360A3602E30184017E06E101800A6A25
:10277000096A086A076A12000A2803E0D880093249
:102780001200D890093202E1018212000186120083
:102790000E360F3602E3018C017E06E101880F6AD6
:1027A0000E6A0D6A0C6A12000F2803E0D8800E3200
:0C27B0001200D8900E32EAE1018A1200FB
:0427BC00060EF66EA1
:1027C000000EF76E000EF86E01010900F550BF6FA4
:1027D0000900F550C06F03E1BF6701D03DD009008B
:1027E000F550BA6F0900F550BB6F0900F550BC6F8A
:1027F00009000900F550E96E0900F550EA6E09007C
:1028000009000900F550BD6F0900F550BE6F0900C1
:102810000900F6CFC1F1F7CFC2F1F8CFC3F1BAC1C9
:10282000F6FFBBC1F7FFBCC1F8FF0101BD5302E1D8
:10283000BE5307E00900F550EE6EBD07F8E2BE0793
:10284000F9D7C1C1F6FFC2C1F7FFC3C1F8FF01014B
:0A285000BF07000EC05BBFD71200E7
:06285A00D9CFE6FFDACF42
:10286000E6FFE1CFD9FFE2CFDAFFE652E652D650DB
:10287000DF6E010ED7CFDBFFDECF14F0DDCF15F01A
:1028800014C0F3FF15C0F4FFE552E552E552E5CF61
:08289000DAFFE7CFD9FF1200C7
:08289800D9CFE6FFDACFE6FF1D
:1028A000E1CFD9FFE2CFDAFFE652E652FC0EDBCFF2
:1028B000DEFFDBCFDDFF010EDB50D76EDF50D66EC3
:1028C000E552E552E552E5CFDAFFE7CFD9FF120036
:1028D000D9CFE6FFDACFE6FFE1CFD9FFE2CFDAFFCB
:1028E000FD0EDB507F0BD56ED76AD66AF294FD0ED3
:1028F000DBAE02D0F28A01D0F29AD58EE552E5CF56
:08290000DAFFE7CFD9FF120056
:08290800FF0EE350216EEF0EFB
:1029100001D0F30EE76EE72E8BEF14F00C0E206E55
:10292000E76AE72E91EF14F0202E90EF14F0212E9D
:0629300089EF14F0120013
:0A293600056A046A100EE76ED890DF
:1029400008360936043605360D50045C0E5005581D
:1029500005E30D50045E0E50055A082AE72EF0D705
:02296000120063
:0E296200FF0EE350216E480E01D04C0EE76EC2
:10297000E72EFED7E76AE72EFED7212EF7D7000015
:02298000120043
:0E298200000EF36E00EE00F0080E01D81200F9
:10299000EA6002D0EE6AFCD7F350E9601200EE6AFA
:0229A000FCD762
:0E29A20013EE00F023EE00F0F86A019CDEEC6C
:0E29B00013F001EC15F001EC11F0FBD7120052
:0229BE00FF0E0A
:1029C000E350216E1B0E00D001D0200EE76EE72EE3
:0A29D000FED7212EFAD700D0120026
:0629DA00FF0EE350E84E81
:1029E0001200000000D000D000D0E82EFAD712006C
:0C29F00050726F6A65746F2033367400FB
:0429FC00D59EF29AD8
:022A00001200C2
:022A02001200C0
:0C2A0400080004000000416C696361746C
:102A100065206465204269636F00416C696361747D
:102A20006520436F7274650000004F7363696C6FBB
:102A300073636F70696F000000004D756C74696D91
:102A40006574726F000000000000436861766520C5
:102A500064652046656E64610000416C6963617461
:102A600065206465204269636F00416C696361742D
:102A700065206465204269636F000000000000006B
:102A80000000000000000000000001000000010044
:102A90000000000000000000000000000000000036
:102AA000002D0000000000000000000000000000F9
:0E2AB000000000000000000000000AD7233CD8
:020000040030CA
:0100000000FF
:010001000CF2
:010002000EEF
:010003001FDD
:010005008179
:010006008178
:00000001FF
