:10000000D5EF02F0EA6A4B0EE96EEF500EE0010EFA
:10001000016E006A002EFED7012EFBD74A0E006E3D
:10002000002EFED700D0EF2EF2D71200EA0E966E09
:1000300084B208D00A0E4B6EE5DFEA0E966E84B2EB
:1000400001D0051EF80E926E80B60AD00A0E4B6ED5
:10005000D9DFF80E926E80B603D0066A49C04AF026
:10006000EDEF02F0F80E926E8990926E8992926E88
:1000700089949380086A81B0082A9382096A81B2C0
:10008000092A93840A6A81B40A2A93860B6A81B684
:100090000B2A93880C6A81B80C2A938A0D6A81BA5C
:1000A0000D2A938C0E6A81BC0E2A938E0F6A81BE34
:1000B0000F2AF80E926E8980926E8992926E8994C0
:1000C0009380106A81B0102A075208E19382116A66
:1000D00081B2112A9384126A81B4122A9386136A18
:1000E00081B6132A9388146A81B8142A938A156AF0
:1000F00081BA152A938C166A81BC162A938E176AC8
:1001000081BE172AF80E926E8990926E8982926E45
:1001100089949380186A81B0182A075208E1938263
:10012000196A81B2192A93841A6A81B41A2A9386A9
:100130001B6A81B61B2A93881C6A81B81C2A938A81
:100140001D6A81BA1D2A938C1E6A81BC1E2A938E59
:100150001F6A81BE1F2AF80E926E8980926E898274
:10016000926E89949380206A81B0202A075208E118
:100170009382216A81B2212A9384226A81B4222A3D
:100180009386236A81B6232A9388246A81B8242A15
:10019000938A256A81BA252A938C266A81BC262AED
:1001A000938E276A81BE272AF80E926E8990926EEE
:1001B0008992926E89849380286A81B0282A075296
:1001C00008E19382296A81B2292A93842A6A81B438
:1001D0002A2A93862B6A81B62B2A93882C6A81B8A7
:1001E0002C2A938A2D6A81BA2D2A938C2E6A81BC7F
:1001F0002E2A938E2F6A81BE2F2AF80E926E898046
:10020000926E8992926E89849380306A81B0302A8E
:10021000075208E19382316A81B2312A9384326AAB
:1002200081B4322A9386336A81B6332A9388346A3A
:1002300081B8342A938A356A81BA352A938C366A12
:1002400081BC362A938E376A81BE372AF80E926EA9
:100250008990926E8982926E89849380386A81B087
:10026000382A075208E19382396A81B2392A938485
:100270003A6A81B43A2A93863B6A81B63B2A9388CC
:100280003C6A81B83C2A938A3D6A81BA3D2A938CA4
:100290003E6A81BC3E2A938E3F6A81BE3F2AF80E99
:1002A000926E8980926E8982926E89849380406A70
:1002B00081B0402A075208E19382416A81B2412A03
:1002C0009384426A81B4422A9386436A81B6432A60
:1002D0009388446A81B8442A938A456A81BA452A38
:1002E000938C466A81BC462A938E476A81BE472A10
:1002F000EEEF02F04C6A4B6A04504B5C0CE2036A6E
:100300004B50080FE96E000E0320EA6EEF2C01D06F
:100310004C2A4B2AF1D74CC049F0052C02D04CC0D6
:100320004AF04CC001F0EFEF02F05050016A4F5C10
:1003300003E24FC000F00CD0006A080E516E4F3639
:1003400000365050005CD8B0006E0136512EF7D701
:1003500012004CC04FF00A0E506EE7DF00C04DF0A7
:100360004CC04FF00A0E506EE0DF01C04EF04D5011
:10037000F60F66E20A0F8BEF02F0000E956E8C907E
:10038000956E8C92956E8C94956E8C9659D0000ECD
:10039000956E8C80956E8C92956E8C94956E8C96E5
:1003A0004FD0000E956E8C90956E8C82956E8C94CD
:1003B000956E8C9645D0000E956E8C80956E8C82D5
:1003C000956E8C94956E8C963BD0000E956E8C90AD
:1003D000956E8C92956E8C84956E8C9631D0000EB5
:1003E000956E8C80956E8C92956E8C84956E8C96A5
:1003F00027D0000E956E8C90956E8C82956E8C84B5
:10040000956E8C961DD0000E956E8C80956E8C82AC
:10041000956E8C84956E8C9613D0000E956E8C9094
:10042000956E8C92956E8C94956E8C8609D0000E8C
:10043000956E8C80956E8C92956E8C94956E8C8654
:100440004E50F60F66E20A0FA2EF02F0000E956E14
:100450008C98956E8C9A956E8C9C956E8C9E59D0CE
:10046000000E956E8C88956E8C9A956E8C9C956E10
:100470008C9E4FD0000E956E8C98956E8C8A956EE2
:100480008C9C956E8C9E45D0000E956E8C88956EDA
:100490008C8A956E8C9C956E8C9E3BD0000E956ED2
:1004A0008C98956E8C9A956E8C8C956E8C9E31D0B6
:1004B000000E956E8C88956E8C9A956E8C8C956ED0
:1004C0008C9E27D0000E956E8C98956E8C8A956EBA
:1004D0008C8C956E8C9E1DD0000E956E8C88956EC2
:1004E0008C8A956E8C8C956E8C9E13D0000E956EBA
:1004F0008C98956E8C9A956E8C9C956E8C8E09D08E
:10050000000E956E8C88956E8C9A956E8C9C956E6F
:100510008C8EF4EF02F0E824F76AF736310FF66EAE
:10052000050EF7220A00F550FA6E0800F550F96E34
:100530007A038E03A203B603CA03DE03F2030604A2
:100540001A042E04E824F76AF7365F0FF66E050EDC
:10055000F7220A00F550FA6E0800F550F96E4C04C7
:100560006004740488049C04B004C404D804EC043B
:100570000005052C04D0EA0E966E8D8403D0EA0E99
:10058000966E8D94F5EF02F04A50495C02E0010E40
:10059000066E065203E0EA0E966E8D80065203E167
:1005A000EA0E966E8D90F6EF02F0F86AD09E600E1D
:1005B000D36ED350400E046E010E056E066A010E16
:1005C000076E496A4A6AC150C00B0F09C16E070E17
:1005D000B46EF80E926E898029D544D58BD601C0B1
:1005E0004BF001C04CF0B5D6C4D7CED7F5D7030039
:020000040030CA
:0E0000003FC8380E0087A1000FC00FE00F4070
:00000001FF
;PIC18F4550
;CRC=937E  CREATED="11-dez-14 13:45"
